{"abi":[{"type":"constructor","inputs":[{"name":"_activator","type":"address","internalType":"address"},{"name":"_evvmAddress","type":"address","internalType":"address"},{"name":"_addressStaking","type":"address","internalType":"address"},{"name":"_admin","type":"address","internalType":"address"}],"stateMutability":"nonpayable"},{"type":"function","name":"acceptActivatorProposal","inputs":[],"outputs":[],"stateMutability":"nonpayable"},{"type":"function","name":"acceptAddressStakingProposal","inputs":[],"outputs":[],"stateMutability":"nonpayable"},{"type":"function","name":"acceptAdminProposal","inputs":[],"outputs":[],"stateMutability":"nonpayable"},{"type":"function","name":"acceptEvvmAddressProposal","inputs":[],"outputs":[],"stateMutability":"nonpayable"},{"type":"function","name":"cancelActivatorProposal","inputs":[],"outputs":[],"stateMutability":"nonpayable"},{"type":"function","name":"cancelAddressStakingProposal","inputs":[],"outputs":[],"stateMutability":"nonpayable"},{"type":"function","name":"cancelAdminProposal","inputs":[],"outputs":[],"stateMutability":"nonpayable"},{"type":"function","name":"cancelEvvmAddressProposal","inputs":[],"outputs":[],"stateMutability":"nonpayable"},{"type":"function","name":"getActivatorMetadata","inputs":[],"outputs":[{"name":"","type":"tuple","internalType":"struct Estimator.AddressTypeProposal","components":[{"name":"actual","type":"address","internalType":"address"},{"name":"proposal","type":"address","internalType":"address"},{"name":"timeToAccept","type":"uint256","internalType":"uint256"}]}],"stateMutability":"view"},{"type":"function","name":"getActualEpochInFormat","inputs":[],"outputs":[{"name":"","type":"bytes32","internalType":"bytes32"}],"stateMutability":"view"},{"type":"function","name":"getActualEpochInUint","inputs":[],"outputs":[{"name":"","type":"uint256","internalType":"uint256"}],"stateMutability":"view"},{"type":"function","name":"getAddressStakingMetadata","inputs":[],"outputs":[{"name":"","type":"tuple","internalType":"struct Estimator.AddressTypeProposal","components":[{"name":"actual","type":"address","internalType":"address"},{"name":"proposal","type":"address","internalType":"address"},{"name":"timeToAccept","type":"uint256","internalType":"uint256"}]}],"stateMutability":"view"},{"type":"function","name":"getAdminMetadata","inputs":[],"outputs":[{"name":"","type":"tuple","internalType":"struct Estimator.AddressTypeProposal","components":[{"name":"actual","type":"address","internalType":"address"},{"name":"proposal","type":"address","internalType":"address"},{"name":"timeToAccept","type":"uint256","internalType":"uint256"}]}],"stateMutability":"view"},{"type":"function","name":"getEpochMetadata","inputs":[],"outputs":[{"name":"","type":"tuple","internalType":"struct Estimator.EpochMetadata","components":[{"name":"tokenPool","type":"address","internalType":"address"},{"name":"totalPool","type":"uint256","internalType":"uint256"},{"name":"totalStaked","type":"uint256","internalType":"uint256"},{"name":"tFinal","type":"uint256","internalType":"uint256"},{"name":"tStart","type":"uint256","internalType":"uint256"}]}],"stateMutability":"view"},{"type":"function","name":"getEvvmAddressMetadata","inputs":[],"outputs":[{"name":"","type":"tuple","internalType":"struct Estimator.AddressTypeProposal","components":[{"name":"actual","type":"address","internalType":"address"},{"name":"proposal","type":"address","internalType":"address"},{"name":"timeToAccept","type":"uint256","internalType":"uint256"}]}],"stateMutability":"view"},{"type":"function","name":"makeEstimation","inputs":[{"name":"_user","type":"address","internalType":"address"}],"outputs":[{"name":"epochAnswer","type":"bytes32","internalType":"bytes32"},{"name":"tokenAddress","type":"address","internalType":"address"},{"name":"amountTotalToBeRewarded","type":"uint256","internalType":"uint256"},{"name":"idToOverwrite","type":"uint256","internalType":"uint256"},{"name":"timestampToOverwrite","type":"uint256","internalType":"uint256"}],"stateMutability":"nonpayable"},{"type":"function","name":"notifyNewEpoch","inputs":[{"name":"tokenPool","type":"address","internalType":"address"},{"name":"totalPool","type":"uint256","internalType":"uint256"},{"name":"totalStaked","type":"uint256","internalType":"uint256"},{"name":"tStart","type":"uint256","internalType":"uint256"}],"outputs":[],"stateMutability":"nonpayable"},{"type":"function","name":"setActivatorProposal","inputs":[{"name":"_proposal","type":"address","internalType":"address"}],"outputs":[],"stateMutability":"nonpayable"},{"type":"function","name":"setAddressStakingProposal","inputs":[{"name":"_proposal","type":"address","internalType":"address"}],"outputs":[],"stateMutability":"nonpayable"},{"type":"function","name":"setAdminProposal","inputs":[{"name":"_proposal","type":"address","internalType":"address"}],"outputs":[],"stateMutability":"nonpayable"},{"type":"function","name":"setEvvmAddressProposal","inputs":[{"name":"_proposal","type":"address","internalType":"address"}],"outputs":[],"stateMutability":"nonpayable"},{"type":"function","name":"simulteEstimation","inputs":[{"name":"_user","type":"address","internalType":"address"}],"outputs":[{"name":"epochAnswer","type":"bytes32","internalType":"bytes32"},{"name":"tokenAddress","type":"address","internalType":"address"},{"name":"amountTotalToBeRewarded","type":"uint256","internalType":"uint256"},{"name":"idToOverwrite","type":"uint256","internalType":"uint256"},{"name":"timestampToOverwrite","type":"uint256","internalType":"uint256"}],"stateMutability":"view"}],"bytecode":{"object":"0x6080346100cd57601f610f5f38819003918201601f19168301916001600160401b038311848410176100d1578084926080946040528339810103126100cd57610047816100e5565b90610054602082016100e5565b61006c6060610065604085016100e5565b93016100e5565b6003601155600580546001600160a01b03199081166001600160a01b039687161790915560088054821693861693909317909255600b8054831693851693909317909255600e805490911691909216179055604051610e6590816100fa8239f35b5f80fd5b634e487b7160e01b5f52604160045260245ffd5b51906001600160a01b03821682036100cd5756fe60806040526004361015610011575f80fd5b5f3560e01c80630f9d8a70146107ab578063112c1d5a1461070f5780631fa75673146106b957806333a61fc3146106955780634cc05f461461065d57806355dbb311146106195780635637455a146105ef5780635b65a897146105995780635fd99c5914610510578063608bd0bf146104cc5780636e14f5591461047157806370b170da14610439578063779a3481146103de57806379eb30f0146103855780637aa84eae1461034d5780637fa80f08146102f4578063a9131e2314610287578063b1fc6a911461022c578063c1a53583146101d1578063c9ed28e9146101b4578063f7027207146101475763fd3607d01461010b575f80fd5b34610143575f366003190112610143576001600160a01b0360055416330361014357600680546001600160a01b03191690555f600755005b5f80fd5b3461014357602036600319011261014357610160610804565b6001600160a01b03600b541633036101435761017e6101b091610bef565b604080519586526001600160a01b039094166020860152928401919091526060830152608082015290819060a0820190565b0390f35b34610143575f366003190112610143576020601154604051908152f35b34610143575f366003190112610143576101e9610bd1565b506101b06040516101f9816108a5565b6001600160a01b03600e541681526001600160a01b03600f5416602082015260105460408201526040519182918261081a565b34610143575f36600319011261014357610244610bd1565b506101b0604051610254816108a5565b6001600160a01b036005541681526001600160a01b0360065416602082015260075460408201526040519182918261081a565b34610143576020366003190112610143576102a0610804565b6001600160a01b03600e54163303610143576001600160a01b03166001600160601b0360a01b60095416176009556201518042018042116102e057600a55005b634e487b7160e01b5f52601160045260245ffd5b346101435760203660031901126101435761030d610804565b6001600160a01b03600e54163303610143576001600160a01b03166001600160601b0360a01b600f541617600f556201518042018042116102e057601055005b34610143575f366003190112610143576001600160a01b03600e5416330361014357600c80546001600160a01b03191690555f600d55005b346101435760203660031901126101435761039e610804565b6001600160a01b03600554163303610143576001600160a01b03166001600160601b0360a01b60065416176006556201518042018042116102e057600755005b34610143575f366003190112610143576103f6610bd1565b506101b0604051610406816108a5565b6001600160a01b036008541681526001600160a01b03600954166020820152600a5460408201526040519182918261081a565b34610143575f366003190112610143576001600160a01b03600e5416330361014357600980546001600160a01b03191690555f600a55005b34610143575f36600319011261014357610489610bd1565b506101b0604051610499816108a5565b6001600160a01b03600b541681526001600160a01b03600c54166020820152600d5460408201526040519182918261081a565b34610143575f3660031901126101435760075442106101435760068054600580546001600160a01b03199081166001600160a01b038416179091551690555f600755005b3461014357608036600319011261014357610529610804565b60243560443590606435926001600160a01b03600554163303610143578360806001600160a01b036040519361055e85610859565b169283815284602082015285604082015242606082015201526001600160601b0360a01b5f5416175f55600155600255426003556004555f80f35b34610143575f366003190112610143576001600160a01b03600e5416330361014357600d54421061014357600c8054600b80546001600160a01b03199081166001600160a01b038416179091551690555f600d55005b34610143575f3660031901126101435760115460011981019081116102e057602090604051908152f35b34610143575f36600319011261014357601054421061014357600f8054600e80546001600160a01b03199081166001600160a01b038416179091551690555f601055005b34610143575f366003190112610143576001600160a01b03600e5416330361014357600f80546001600160a01b03191690555f601055005b34610143576020366003190112610143576101b061017e6106b4610804565b610981565b34610143575f366003190112610143576001600160a01b03600e5416330361014357600a5442106101435760098054600880546001600160a01b03199081166001600160a01b038416179091551690555f600a55005b34610143575f366003190112610143575f608060405161072e81610859565b828152826020820152826040820152826060820152015260a060405161075381610859565b6001600160a01b035f5416908181526001546020820190815260025460408301908152600354916060840192835260806004549401938452604051948552516020850152516040840152516060830152516080820152f35b34610143576020366003190112610143576107c4610804565b6001600160a01b03600e54163303610143576001600160a01b03166001600160601b0360a01b600c541617600c556201518042018042116102e057600d55005b600435906001600160a01b038216820361014357565b91909160408060608301946001600160a01b0381511684526001600160a01b0360208201511660208501520151910152565b919082018092116102e057565b60a0810190811067ffffffffffffffff82111761087557604052565b634e487b7160e01b5f52604160045260245ffd5b6080810190811067ffffffffffffffff82111761087557604052565b6060810190811067ffffffffffffffff82111761087557604052565b90601f8019910116810190811067ffffffffffffffff82111761087557604052565b604051906108f082610889565b5f6060838281528260208201528260408201520152565b908160809103126101435760606040519161092183610889565b8051835260208101516020840152604081015160408401520151606082015290565b919082039182116102e057565b818102929181159184041417156102e057565b811561096d570490565b634e487b7160e01b5f52601260045260245ffd5b905f915f915f905f925f60045491826109986108e3565b506001600160a01b03600b54169660405190637e17f55960e11b82526001600160a01b03841660048301526020826024818c5afa918215610b92575f92610b9d575b50929197905f9360035499601154915b838710610a54575b50505050505050670de0b6b3a7640000810290808204670de0b6b3a764000014901517156102e057610a3a610a4f91610a34670de0b6b3a76400009488610943565b90610963565b610a4960015460025490610963565b90610950565b049290565b60405163120a744b60e31b81526001600160a01b038716600482015260248101889052969a509495939492939192608083604481895afa928315610b92575f93610b62575b5060408301918c835111610b125784845114610af75781610ace575b5050516060919091015160018a019594939291906109ea565b97610ae9610aef92610ae4859b60609651610943565b610950565b9061084c565b96905f610ab5565b5050505050505050505093505050505f905f905f905f905f90565b9550955050916001915097949714610b56575b5081610b3b575b5050925f8080808080806109f2565b610b4e929591610ae4610ae99289610943565b925f80610b2c565b6060015191505f610b25565b610b8491935060803d8111610b8b575b610b7c81836108c1565b810190610907565b915f610a99565b503d610b72565b6040513d5f823e3d90fd5b9091506020813d602011610bc9575b81610bb9602093836108c1565b810103126101435751905f6109da565b3d9150610bac565b60405190610bde826108a5565b5f6040838281528260208201520152565b5f915f915f905f925f600454928390610c066108e3565b946001600160a01b03600b54169760405190637e17f55960e11b82526001600160a01b03841660048301526020826024818d5afa918215610b92575f92610dfb575b5091985f93916003549a601154905b828710610cd4575b50505050505050670de0b6b3a7640000820291808304670de0b6b3a764000014901517156102e057610ccf91610a34610c989288610943565b606060015494610cc4670de0b6b3a7640000610cbb60025495610a49878b610963565b04809997610943565b600155015190610943565b600255565b60405163120a744b60e31b81526001600160a01b038616600482015260248101889052969b509499509294919390929190608082604481885afa918215610b92575f92610ddb575b50819960018514610dd0575b60408301918d835111610d955784845114610d7a5781610d5c575b5050606090519101519160018b01959391949294610c57565b98610ae9610d7292610ae4859c60609651610943565b97905f610d43565b505f9e508e9d508d9c508c9b508b9a50505050505050505050565b955095505050505081969296610db5575b5050935f808080808080610c5f565b610dc8929391610ae4610ae9928a610943565b905f80610da6565b506060820151610d28565b610df491925060803d8111610b8b57610b7c81836108c1565b905f610d1c565b9091506020813d602011610e27575b81610e17602093836108c1565b810103126101435751905f610c48565b3d9150610e0a56fea264697066735822122004a7efdc16a6cf1c37611d77113a6f49310f7041a2a59a5368f155e5f5ac679564736f6c634300081a0033","linkReferences":{}},"methodIdentifiers":{"acceptActivatorProposal()":"608bd0bf","acceptAddressStakingProposal()":"5b65a897","acceptAdminProposal()":"55dbb311","acceptEvvmAddressProposal()":"1fa75673","cancelActivatorProposal()":"fd3607d0","cancelAddressStakingProposal()":"7aa84eae","cancelAdminProposal()":"4cc05f46","cancelEvvmAddressProposal()":"70b170da","getActivatorMetadata()":"b1fc6a91","getActualEpochInFormat()":"c9ed28e9","getActualEpochInUint()":"5637455a","getAddressStakingMetadata()":"6e14f559","getAdminMetadata()":"c1a53583","getEpochMetadata()":"112c1d5a","getEvvmAddressMetadata()":"779a3481","makeEstimation(address)":"f7027207","notifyNewEpoch(address,uint256,uint256,uint256)":"5fd99c59","setActivatorProposal(address)":"79eb30f0","setAddressStakingProposal(address)":"0f9d8a70","setAdminProposal(address)":"7fa80f08","setEvvmAddressProposal(address)":"a9131e23","simulteEstimation(address)":"33a61fc3"},"id":74}