{"abi":[{"type":"constructor","inputs":[{"name":"_initialOwner","type":"address","internalType":"address"},{"name":"_stakingContractAddress","type":"address","internalType":"address"},{"name":"_evvmMetadata","type":"tuple","internalType":"struct EvvmStructs.EvvmMetadata","components":[{"name":"EvvmName","type":"string","internalType":"string"},{"name":"EvvmID","type":"uint256","internalType":"uint256"},{"name":"principalTokenName","type":"string","internalType":"string"},{"name":"principalTokenSymbol","type":"string","internalType":"string"},{"name":"principalTokenAddress","type":"address","internalType":"address"},{"name":"totalSupply","type":"uint256","internalType":"uint256"},{"name":"eraTokens","type":"uint256","internalType":"uint256"},{"name":"reward","type":"uint256","internalType":"uint256"}]}],"stateMutability":"nonpayable"},{"type":"fallback","stateMutability":"nonpayable"},{"type":"function","name":"_setupNameServiceAndTreasuryAddress","inputs":[{"name":"_nameServiceAddress","type":"address","internalType":"address"},{"name":"_treasuryAddress","type":"address","internalType":"address"}],"outputs":[],"stateMutability":"nonpayable"},{"type":"function","name":"acceptAdmin","inputs":[],"outputs":[],"stateMutability":"nonpayable"},{"type":"function","name":"acceptImplementation","inputs":[],"outputs":[],"stateMutability":"nonpayable"},{"type":"function","name":"addAmountToUser","inputs":[{"name":"user","type":"address","internalType":"address"},{"name":"token","type":"address","internalType":"address"},{"name":"amount","type":"uint256","internalType":"uint256"}],"outputs":[],"stateMutability":"nonpayable"},{"type":"function","name":"addBalance","inputs":[{"name":"user","type":"address","internalType":"address"},{"name":"token","type":"address","internalType":"address"},{"name":"quantity","type":"uint256","internalType":"uint256"}],"outputs":[],"stateMutability":"nonpayable"},{"type":"function","name":"caPay","inputs":[{"name":"to","type":"address","internalType":"address"},{"name":"token","type":"address","internalType":"address"},{"name":"amount","type":"uint256","internalType":"uint256"}],"outputs":[],"stateMutability":"nonpayable"},{"type":"function","name":"disperseCaPay","inputs":[{"name":"toData","type":"tuple[]","internalType":"struct EvvmStructs.DisperseCaPayMetadata[]","components":[{"name":"amount","type":"uint256","internalType":"uint256"},{"name":"toAddress","type":"address","internalType":"address"}]},{"name":"token","type":"address","internalType":"address"},{"name":"amount","type":"uint256","internalType":"uint256"}],"outputs":[],"stateMutability":"nonpayable"},{"type":"function","name":"dispersePay","inputs":[{"name":"from","type":"address","internalType":"address"},{"name":"toData","type":"tuple[]","internalType":"struct EvvmStructs.DispersePayMetadata[]","components":[{"name":"amount","type":"uint256","internalType":"uint256"},{"name":"to_address","type":"address","internalType":"address"},{"name":"to_identity","type":"string","internalType":"string"}]},{"name":"token","type":"address","internalType":"address"},{"name":"amount","type":"uint256","internalType":"uint256"},{"name":"priorityFee","type":"uint256","internalType":"uint256"},{"name":"nonce","type":"uint256","internalType":"uint256"},{"name":"priorityFlag","type":"bool","internalType":"bool"},{"name":"executor","type":"address","internalType":"address"},{"name":"signature","type":"bytes","internalType":"bytes"}],"outputs":[],"stateMutability":"nonpayable"},{"type":"function","name":"getBalance","inputs":[{"name":"user","type":"address","internalType":"address"},{"name":"token","type":"address","internalType":"address"}],"outputs":[{"name":"","type":"uint256","internalType":"uint256"}],"stateMutability":"view"},{"type":"function","name":"getCurrentAdmin","inputs":[],"outputs":[{"name":"","type":"address","internalType":"address"}],"stateMutability":"view"},{"type":"function","name":"getCurrentImplementation","inputs":[],"outputs":[{"name":"","type":"address","internalType":"address"}],"stateMutability":"view"},{"type":"function","name":"getEraPrincipalToken","inputs":[],"outputs":[{"name":"","type":"uint256","internalType":"uint256"}],"stateMutability":"view"},{"type":"function","name":"getEvvmID","inputs":[],"outputs":[{"name":"","type":"uint256","internalType":"uint256"}],"stateMutability":"view"},{"type":"function","name":"getEvvmMetadata","inputs":[],"outputs":[{"name":"","type":"tuple","internalType":"struct EvvmStructs.EvvmMetadata","components":[{"name":"EvvmName","type":"string","internalType":"string"},{"name":"EvvmID","type":"uint256","internalType":"uint256"},{"name":"principalTokenName","type":"string","internalType":"string"},{"name":"principalTokenSymbol","type":"string","internalType":"string"},{"name":"principalTokenAddress","type":"address","internalType":"address"},{"name":"totalSupply","type":"uint256","internalType":"uint256"},{"name":"eraTokens","type":"uint256","internalType":"uint256"},{"name":"reward","type":"uint256","internalType":"uint256"}]}],"stateMutability":"view"},{"type":"function","name":"getIfUsedAsyncNonce","inputs":[{"name":"user","type":"address","internalType":"address"},{"name":"nonce","type":"uint256","internalType":"uint256"}],"outputs":[{"name":"","type":"bool","internalType":"bool"}],"stateMutability":"view"},{"type":"function","name":"getNameServiceAddress","inputs":[],"outputs":[{"name":"","type":"address","internalType":"address"}],"stateMutability":"view"},{"type":"function","name":"getNextCurrentSyncNonce","inputs":[{"name":"user","type":"address","internalType":"address"}],"outputs":[{"name":"","type":"uint256","internalType":"uint256"}],"stateMutability":"view"},{"type":"function","name":"getNextFisherDepositNonce","inputs":[{"name":"user","type":"address","internalType":"address"}],"outputs":[{"name":"","type":"uint256","internalType":"uint256"}],"stateMutability":"view"},{"type":"function","name":"getPrincipalTokenTotalSupply","inputs":[],"outputs":[{"name":"","type":"uint256","internalType":"uint256"}],"stateMutability":"view"},{"type":"function","name":"getProposalAdmin","inputs":[],"outputs":[{"name":"","type":"address","internalType":"address"}],"stateMutability":"view"},{"type":"function","name":"getProposalImplementation","inputs":[],"outputs":[{"name":"","type":"address","internalType":"address"}],"stateMutability":"view"},{"type":"function","name":"getRewardAmount","inputs":[],"outputs":[{"name":"","type":"uint256","internalType":"uint256"}],"stateMutability":"view"},{"type":"function","name":"getStakingContractAddress","inputs":[],"outputs":[{"name":"","type":"address","internalType":"address"}],"stateMutability":"view"},{"type":"function","name":"getTimeToAcceptAdmin","inputs":[],"outputs":[{"name":"","type":"uint256","internalType":"uint256"}],"stateMutability":"view"},{"type":"function","name":"getTimeToAcceptImplementation","inputs":[],"outputs":[{"name":"","type":"uint256","internalType":"uint256"}],"stateMutability":"view"},{"type":"function","name":"getWhitelistTokenToBeAdded","inputs":[],"outputs":[{"name":"","type":"address","internalType":"address"}],"stateMutability":"view"},{"type":"function","name":"getWhitelistTokenToBeAddedDateToSet","inputs":[],"outputs":[{"name":"","type":"uint256","internalType":"uint256"}],"stateMutability":"view"},{"type":"function","name":"isAddressStaker","inputs":[{"name":"user","type":"address","internalType":"address"}],"outputs":[{"name":"","type":"bool","internalType":"bool"}],"stateMutability":"view"},{"type":"function","name":"pay","inputs":[{"name":"from","type":"address","internalType":"address"},{"name":"to_address","type":"address","internalType":"address"},{"name":"to_identity","type":"string","internalType":"string"},{"name":"token","type":"address","internalType":"address"},{"name":"amount","type":"uint256","internalType":"uint256"},{"name":"priorityFee","type":"uint256","internalType":"uint256"},{"name":"nonce","type":"uint256","internalType":"uint256"},{"name":"priorityFlag","type":"bool","internalType":"bool"},{"name":"executor","type":"address","internalType":"address"},{"name":"signature","type":"bytes","internalType":"bytes"}],"outputs":[],"stateMutability":"nonpayable"},{"type":"function","name":"payMultiple","inputs":[{"name":"payData","type":"tuple[]","internalType":"struct EvvmStructs.PayData[]","components":[{"name":"from","type":"address","internalType":"address"},{"name":"to_address","type":"address","internalType":"address"},{"name":"to_identity","type":"string","internalType":"string"},{"name":"token","type":"address","internalType":"address"},{"name":"amount","type":"uint256","internalType":"uint256"},{"name":"priorityFee","type":"uint256","internalType":"uint256"},{"name":"nonce","type":"uint256","internalType":"uint256"},{"name":"priorityFlag","type":"bool","internalType":"bool"},{"name":"executor","type":"address","internalType":"address"},{"name":"signature","type":"bytes","internalType":"bytes"}]}],"outputs":[{"name":"successfulTransactions","type":"uint256","internalType":"uint256"},{"name":"failedTransactions","type":"uint256","internalType":"uint256"},{"name":"results","type":"bool[]","internalType":"bool[]"}],"stateMutability":"nonpayable"},{"type":"function","name":"pointStaker","inputs":[{"name":"user","type":"address","internalType":"address"},{"name":"answer","type":"bytes1","internalType":"bytes1"}],"outputs":[],"stateMutability":"nonpayable"},{"type":"function","name":"proposeAdmin","inputs":[{"name":"_newOwner","type":"address","internalType":"address"}],"outputs":[],"stateMutability":"nonpayable"},{"type":"function","name":"proposeImplementation","inputs":[{"name":"_newImpl","type":"address","internalType":"address"}],"outputs":[],"stateMutability":"nonpayable"},{"type":"function","name":"recalculateReward","inputs":[],"outputs":[],"stateMutability":"nonpayable"},{"type":"function","name":"rejectProposalAdmin","inputs":[],"outputs":[],"stateMutability":"nonpayable"},{"type":"function","name":"rejectUpgrade","inputs":[],"outputs":[],"stateMutability":"nonpayable"},{"type":"function","name":"removeAmountFromUser","inputs":[{"name":"user","type":"address","internalType":"address"},{"name":"token","type":"address","internalType":"address"},{"name":"amount","type":"uint256","internalType":"uint256"}],"outputs":[],"stateMutability":"nonpayable"},{"type":"function","name":"setEvvmID","inputs":[{"name":"newEvvmID","type":"uint256","internalType":"uint256"}],"outputs":[],"stateMutability":"nonpayable"},{"type":"function","name":"setNameServiceAddress","inputs":[{"name":"_nameServiceAddress","type":"address","internalType":"address"}],"outputs":[],"stateMutability":"nonpayable"},{"type":"function","name":"setPointStaker","inputs":[{"name":"user","type":"address","internalType":"address"},{"name":"answer","type":"bytes1","internalType":"bytes1"}],"outputs":[],"stateMutability":"nonpayable"},{"type":"error","name":"InsufficientBalance","inputs":[]},{"type":"error","name":"InvalidAmount","inputs":[{"name":"","type":"uint256","internalType":"uint256"},{"name":"","type":"uint256","internalType":"uint256"}]},{"type":"error","name":"InvalidAsyncNonce","inputs":[]},{"type":"error","name":"InvalidSignature","inputs":[]},{"type":"error","name":"NotAnCA","inputs":[]},{"type":"error","name":"SenderIsNotTheExecutor","inputs":[]},{"type":"error","name":"SenderIsNotTreasury","inputs":[]},{"type":"error","name":"UpdateBalanceFailed","inputs":[]},{"type":"error","name":"WindowToChangeEvvmIDExpired","inputs":[]}],"bytecode":{"object":"0x60806040523461061d576134cf8038038061001981610621565b928339810160608282031261061d5761003182610646565b61003d60208401610646565b604084015190936001600160401b03821161061d5701916101008382031261061d576040519061010082016001600160401b038111838210176104235760405283516001600160401b03811161061d578161009991860161065a565b825260208481015190830190815260408501519091906001600160401b03811161061d57816100c991870161065a565b60408401908152606086015190916001600160401b03821161061d576100f091870161065a565b916060840192835261010460808701610646565b936080810194855260a08701519560a0820196875260e060c08901519860c08401998a5201519860e08301998a5260018060a01b0316908160018060a01b0319600154161760015560018060a01b031660018060a01b031960125416176012556011548060011b908082046002149015171561060957815f52601760205260405f2060018060a01b03600e54165f5260205260405f20555f52601660205260405f20600160ff19825416179055600160ff1960155416176015555180519060018060401b03821161042357600a5490600182811c921680156105ff575b60208310146104055781601f849311610591575b50602090601f831160011461052b575f92610520575b50508160011b915f199060031b1c191617600a555b51600b55518051906001600160401b03821161042357600c5490600182811c92168015610516575b60208310146104055781601f8493116104a8575b50602090601f8311600114610442575f92610437575b50508160011b915f199060031b1c191617600c555b518051906001600160401b03821161042357600d5490600182811c92168015610419575b60208310146104055781601f849311610397575b50602090601f8311600114610331575f92610326575b50508160011b915f199060031b1c191617600d555b51600e80546001600160a01b0319166001600160a01b039290921691909117905551600f555160105551601155604051612e2390816106ac8239f35b015190505f806102d5565b600d5f9081528281209350601f198516905b81811061037f5750908460019594939210610367575b505050811b01600d556102ea565b01515f1960f88460031b161c191690555f8080610359565b92936020600181928786015181550195019301610343565b600d5f529091507fd7b6990105719101dabeb77144f2a3385c8033acd3af97e9423a695e81ad1eb5601f840160051c810191602085106103fb575b90601f859493920160051c01905b8181106103ed57506102bf565b5f81558493506001016103e0565b90915081906103d2565b634e487b7160e01b5f52602260045260245ffd5b91607f16916102ab565b634e487b7160e01b5f52604160045260245ffd5b015190505f80610272565b600c5f9081528281209350601f198516905b8181106104905750908460019594939210610478575b505050811b01600c55610287565b01515f1960f88460031b161c191690555f808061046a565b92936020600181928786015181550195019301610454565b600c5f529091507fdf6966c971051c3d54ec59162606531493a51404a002842f56009d7e5cf4a8c7601f840160051c8101916020851061050c575b90601f859493920160051c01905b8181106104fe575061025c565b5f81558493506001016104f1565b90915081906104e3565b91607f1691610248565b015190505f8061020b565b600a5f9081528281209350601f198516905b8181106105795750908460019594939210610561575b505050811b01600a55610220565b01515f1960f88460031b161c191690555f8080610553565b9293602060018192878601518155019501930161053d565b600a5f529091507fc65a7bb8d6351c1cf70c95a316cc6a92839c986682d98bc35f958f4883f9d2a8601f840160051c810191602085106105f5575b90601f859493920160051c01905b8181106105e757506101f5565b5f81558493506001016105da565b90915081906105cc565b91607f16916101e1565b634e487b7160e01b5f52601160045260245ffd5b5f80fd5b6040519190601f01601f191682016001600160401b0381118382101761042357604052565b51906001600160a01b038216820361061d57565b81601f8201121561061d578051906001600160401b03821161042357610689601f8301601f1916602001610621565b928284526020838301011161061d57815f9260208093018386015e830101529056fe60806040526004361015610019575b34156123e6575b5f80fd5b5f3560e01c806301ed3f511461029857806309a69f57146102935780630e18b6811461028e5780630faff8e814610289578063147bf6c41461028457806315ba56e51461027f57806317c851521461027a578063286b4b441461027557806329cca569146102705780632e9621cb1461026b5780633a8cd872146102665780633f54542a146102615780634234a7061461025c57806347ecd0f6146102575780634b4a293a146102525780635300e1621461024d578063643d430c146102485780636a84190b146102435780636afe57951461023e5780636c9fa638146102395780636cd301481461023457806373d867f51461022f57806376e6eb7e1461022a5780638bf6b935146102255780638e0069811461022057806391afcf5c1461021b57806394e961c914610216578063954236dc146102115780639ce6fa651461020c5780639dd18c1514610207578063a7a096f614610202578063adb6233f146101fd578063b38c950a146101f8578063c898a6e9146101f3578063d0e3692d146101ee578063d3bca884146101e9578063d4fac45d146101e4578063e8163dda146101df578063eaa4d6ca146101da5763ef83c1d60361000e57611280565b611263565b61122e565b6111e8565b6111aa565b61115b565b611100565b6110c8565b611081565b610f93565b610f36565b610ee9565b610ecc565b610ea6565b610e80565b610cf4565b610c76565b610c17565b610bfa565b610bbe565b610b50565b610afe565b610a32565b6109e4565b610937565b610911565b6108f4565b6108b8565b610880565b61085b565b6107c0565b61065b565b61062a565b61060d565b6105b7565b61053e565b610410565b610315565b6102f8565b34610015576020366003190112610015576004356001600160a01b036012541633036100155780156102df575b600b556201518042018042116102da57600955005b6113cc565b6009544211156102c55763a246d91560e01b5f5260045ffd5b34610015575f366003190112610015576020601154604051908152f35b34610015575f366003190112610015576014544210610015576013546001600160a01b03811680330361001557601280546001600160a01b0319908116929092179055166013555f601455005b805180835260209291819084018484015e5f828201840152601f01601f1916010190565b6020815261010060e06103e16103cb6103ab8651856020880152610120870190610362565b602087015160408701526040870151601f19878303016060880152610362565b6060860151858203601f19016080870152610362565b60808501516001600160a01b031660a08501529360a081015160c085015260c081015182850152015191015290565b34610015575f366003190112610015575f60e060405161042f81610695565b60608152826020820152606060408201526060808201528260808201528260a08201528260c082015201526104da610465610711565b61046d611417565b8152600b54602082015261047f6114ec565b604082015261048c611593565b60608201526104b66104a6600e546001600160a01b031690565b6001600160a01b03166080830152565b600f5460a082015260105460c082015260115460e082015260405191829182610386565b0390f35b6001600160a01b0381160361001557565b602435906104fc826104de565b565b606435906104fc826104de565b61010435906104fc826104de565b604435906104fc826104de565b60e435906104fc826104de565b35906104fc826104de565b346100155760203660031901126100155760043561055b816104de565b6001600160a01b036012541690813303610015576001600160a01b03169081159081156105ad575b50610015576001600160601b0360a01b60135416176013556201518042018042116102da57601455005b905081145f610583565b34610015575f366003190112610015576001600160a01b036012541633036100155760085442106100155760078054600680546001600160a01b03199081166001600160a01b038416179091551690555f600855005b34610015575f366003190112610015576020600b54604051908152f35b3461001557602036600319011261001557602061065160043561064c816104de565b61163a565b6040519015158152f35b34610015575f3660031901126100155760206001600160a01b0360065416604051908152f35b634e487b7160e01b5f52604160045260245ffd5b610100810190811067ffffffffffffffff8211176106b257604052565b610681565b6040810190811067ffffffffffffffff8211176106b257604052565b6060810190811067ffffffffffffffff8211176106b257604052565b90601f8019910116810190811067ffffffffffffffff8211176106b257604052565b604051906104fc610100836106ef565b604051906104fc610140836106ef565b67ffffffffffffffff81116106b257601f01601f191660200190565b81601f820112156100155760208135910161076782610731565b9261077560405194856106ef565b8284528282011161001557815f92602092838601378301015290565b8015150361001557565b60e435906104fc82610791565b60c435906104fc82610791565b35906104fc82610791565b3461001557610140366003190112610015576004356107de816104de565b602435906107eb826104de565b60443567ffffffffffffffff81116100155761080b90369060040161074d565b6108136104fe565b60c43560a43560843561082461079b565b9361082d61050b565b95610124359867ffffffffffffffff8a11610015576108536108599a369060040161074d565b986116ba565b005b34610015575f3660031901126100155760206001600160a01b035f5416604051908152f35b34610015575f366003190112610015576001600160a01b0360125416330361001557600780546001600160a01b03191690555f600855005b34610015576020366003190112610015576001600160a01b036004356108dd816104de565b165f52601a602052602060405f2054604051908152f35b34610015575f366003190112610015576020600f54604051908152f35b34610015575f3660031901126100155760206001600160a01b0360075416604051908152f35b34610015575f36600319011261001557600f546010549081811115610015578181039081116102da5760011c81018091116102da5760105561098360115461097d6127b7565b9061192f565b6109ce6109c66109a4336001600160a01b03165f52601760205260405f2090565b600e546001600160a01b03165b6001600160a01b03165f5260205260405f2090565b91825461140a565b90556108596109df60115460011c90565b601155565b34610015575f3660031901126100155760206001600160a01b0360125416604051908152f35b604090600319011261001557600435610a22816104de565b90602435610a2f816104de565b90565b3461001557610a4036610a0a565b60155460f81b6001600160f81b031916156100155769021e19e0c9bab2400000610abd610a9c6001600160a01b036108599516806001600160601b0360a01b5f5416175f556001600160a01b03165f52601760205260405f2090565b6001600160a01b03600e54166001600160a01b03165f5260205260405f2090565b555f80546001600160a01b03168152601660205260409020805460ff191660011790556001600160a01b03166001600160601b0360a01b6002541617600255565b34610015575f3660031901126100155760206001600160a01b0360015416604051908152f35b606090600319011261001557600435610b3c816104de565b90602435610b49816104de565b9060443590565b3461001557610b5e36610b24565b91906001600160a01b03600254163303610baf576001600160a01b03610ba092165f52601760205260405f20906001600160a01b03165f5260205260405f2090565b80549182018092116102da5755005b63aab0382b60e01b5f5260045ffd5b34610015576020366003190112610015576001600160a01b03600435610be3816104de565b165f526018602052602060405f2054604051908152f35b34610015575f366003190112610015576020601454604051908152f35b3461001557610c2536610b24565b91906001600160a01b03600254163303610baf576001600160a01b03610c6792165f52601760205260405f20906001600160a01b03165f5260205260405f2090565b80549182039182116102da5755005b34610015575f366003190112610015576020600854604051908152f35b67ffffffffffffffff81116106b25760051b60200190565b608090602092936060820194825283820152606060408201528451809452019201905f5b818110610cdc5750505090565b82511515845260209384019390920191600101610ccf565b346100155760203660031901126100155760043567ffffffffffffffff81116100155736602382011215610015578060040135610d3081610c93565b91610d3e60405193846106ef565b8183526024602084019260051b820101903682116100155760248101925b828410610d7e576104da610d6f866119a1565b60409391935193849384610cab565b833567ffffffffffffffff8111610015578201610140602319823603011261001557610da8610721565b91610db560248301610533565b8352610dc360448301610533565b6020840152606482013567ffffffffffffffff811161001557610dec906024369185010161074d565b6040840152610dfd60848301610533565b606084015260a4820135608084015260c482013560a084015260e482013560c0840152610e2d61010483016107b5565b60e0840152610e3f6101248301610533565b6101008401526101448201359267ffffffffffffffff841161001557610e6f60209493602486953692010161074d565b610120820152815201930192610d5c565b34610015575f3660031901126100155760206001600160a01b0360135416604051908152f35b34610015575f3660031901126100155760206001600160a01b0360035416604051908152f35b34610015575f366003190112610015576020600554604051908152f35b3461001557602036600319011261001557600435610f06816104de565b6001600160a01b03601254163303610015576001600160a01b03166001600160601b0360a01b5f5416175f555f80f35b3461001557602036600319011261001557600435610f53816104de565b6001600160a01b03601254163303610015576001600160a01b03166001600160601b0360a01b600754161760075562278d0042018042116102da57600855005b346100155760603660031901126100155760043567ffffffffffffffff8111610015573660238201121561001557806004013590610fd082610c93565b90610fde60405192836106ef565b8282526024602083019360061b8201019036821161001557602401925b818410611017576108598361100e6104ef565b60443591611e72565b6040843603126100155760206040918251611031816106b7565b8635815282870135611042816104de565b83820152815201930192610ffb565b604090600319011261001557600435611069816104de565b906024356001600160f81b0319811681036100155790565b346100155761108f36611051565b6001600160a01b03600154163303610015576001600160a01b0361085992165f52601660205260405f209060f81c60ff19825416179055565b34610015575f366003190112610015576001600160a01b0360125416330361001557601380546001600160a01b03191690555f601455005b346100155761110e36610b24565b90333b1561114c5761112092336125c4565b1561113d5761112e3361163a565b61113457005b6108593361266d565b63143070cd60e11b5f5260045ffd5b633d0c12e760e21b5f5260045ffd5b3461001557604036600319011261001557600435611178816104de565b6001600160a01b0360243591165f52601960205260405f20905f52602052602060ff60405f2054166040519015158152f35b34610015576001600160a01b03610ba06111c336610b24565b939091165f52601760205260405f20906001600160a01b03165f5260205260405f2090565b346100155760206112256001600160a01b0361120336610a0a565b91165f526017835260405f20906001600160a01b03165f5260205260405f2090565b54604051908152f35b34610015576108596001600160a01b0361124736611051565b91165f52601660205260405f209060f81c60ff19825416179055565b34610015575f366003190112610015576020601054604051908152f35b34610015576101203660031901126100155760043561129e816104de565b60243567ffffffffffffffff8111610015576004019036601f830112156100155781356112ca81610c93565b926112d860405194856106ef565b81845260208085019260051b820101903682116100155760208101925b82841061134c578585611306610519565b60643560a4356084356113176107a8565b92611320610526565b94610104359767ffffffffffffffff89116100155761134661085999369060040161074d565b9761204e565b833567ffffffffffffffff81116100155782016060601f198236030112610015576040519161137a836106d3565b60208201358352604082013561138f816104de565b602084015260608201359267ffffffffffffffff8411610015576113bc602094938580953692010161074d565b60408201528152019301926112f5565b634e487b7160e01b5f52601160045260245ffd5b90600c82018092116102da57565b60020190816002116102da57565b60030190816003116102da57565b919082018092116102da57565b604051905f600a548060011c916001821680156114e2575b6020841081146114ce57838652859260208401919081156114b55750600114611460575b506104fc925003836106ef565b600a5f90815291507fc65a7bb8d6351c1cf70c95a316cc6a92839c986682d98bc35f958f4883f9d2a85b84831061149e57506104fc9350015f611453565b80548284015286935060209092019160010161148a565b60ff19168252506104fc93151560051b0190505f611453565b634e487b7160e01b5f52602260045260245ffd5b92607f169261142f565b604051905f600c548060011c91600182168015611589575b6020841081146114ce57838652859260208401919081156114b5575060011461153457506104fc925003836106ef565b600c5f90815291507fdf6966c971051c3d54ec59162606531493a51404a002842f56009d7e5cf4a8c75b84831061157257506104fc9350015f611453565b80548284015286935060209092019160010161155e565b92607f1692611504565b604051905f600d548060011c91600182168015611630575b6020841081146114ce57838652859260208401919081156114b557506001146115db57506104fc925003836106ef565b600d5f90815291507fd7b6990105719101dabeb77144f2a3385c8033acd3af97e9423a695e81ad1eb55b84831061161957506104fc9350015f611453565b805482840152869350602090920191600101611605565b92607f16926115ab565b6001600160a01b03165f9081526016602052604090205460f81b6001600160f81b031916600160f81b1490565b604051906116766020836106ef565b5f8252565b908160209103126100155751610a2f816104de565b906020610a2f928181520190610362565b6040513d5f823e3d90fd5b5f1981146102da5760010190565b97909193929495986116e46116e891838a8d8b898f8c8b8f92600b5496885f146118e957966124f8565b1590565b6118da576001600160a01b0316806118bf575b508580611890575b61188157839061171d6116e4611717611667565b86612597565b1561187157505060206117689261174d6117416117415f546001600160a01b031690565b6001600160a01b031690565b604051808096819463063c696360e11b835260048301611690565b03915afa90811561186c57836116e49261178b945f9161183d575b505b886125c4565b61113d576117983361163a565b61180a575b5050156117e0576104fc916117c66117d3926001600160a01b03165f52601960205260405f2090565b905f5260205260405f2090565b805460ff19166001179055565b6117fc91506001600160a01b03165f52601860205260405f2090565b61180681546116ac565b9055565b81611823575b505061181b3361266d565b505f8061179d565b611832916116e49133866125c4565b61113d575f80611810565b61185f915060203d602011611865575b61185781836106ef565b81019061167b565b5f611783565b503d61184d565b6116a1565b61178b9350906116e49291611785565b631849850b60e01b5f5260045ffd5b506118ba6118b3896117c68a6001600160a01b03165f52601960205260405f2090565b5460ff1690565b611703565b33036118cb575f6116fb565b632e3ac5bf60e11b5f5260045ffd5b638baa579f60e01b5f5260045ffd5b50611905816001600160a01b03165f52601860205260405f2090565b54966124f8565b919082039182116102da57565b908160011b91808304600214901517156102da57565b818102929181159184041417156102da57565b9061194c82610c93565b61195960405191826106ef565b828152809261196a601f1991610c93565b0190602036910137565b634e487b7160e01b5f52603260045260245ffd5b805182101561199c5760209160051b010190565b611974565b5f915f6119ae8351611942565b905f905b8451821015611e52578185600b548180846119de6119d08284611988565b51516001600160a01b031690565b6119fc60206119ed8486611988565b5101516001600160a01b031690565b6040611a088486611988565b510151611a1a60606119ed8688611988565b906080611a278688611988565b5101519260a0611a378789611988565b51015194611a5260e0611a4a898b611988565b510151151590565b15611e065786611a62818a611988565b5160c0015197611aa49d611a956101006116e49f61012095611a8f60e0611a4a611a9b986119ed95611988565b9e611988565b9b611988565b510151996124f8565b6118da57611abb6117416101006119ed8589611988565b611de2575b611acf60e0611a4a8488611988565b15611d8557611b1f6116e46118b3611b04611aed6119d0878b611988565b6001600160a01b03165f52601960205260405f2090565b60c0611b10878b611988565b5101515f5260205260405f2090565b15611d7a57611b466117d3611b3a611aed6119d0868a611988565b60c0611b10868a611988565b611b696116e46040611b588589611988565b510151611b63611667565b90612597565b15611d6657611bb56020611b8a6117416117415f546001600160a01b031690565b6040611b96868a611988565b51015190604051808095819463063c696360e11b835260048301611690565b03915afa90811561186c575f91611d48575b505b611bf060a0611bd88589611988565b5101516080611be7868a611988565b5101519061140a565b611c29611c1a611c036119d0878b611988565b6001600160a01b03165f52601760205260405f2090565b6109b160606119ed888c611988565b5410611d3c576116e4611c6991611c436119d0868a611988565b90611c5360606119ed888c611988565b906080611c60888c611988565b510151926125c4565b15611c8e57611c796001916116ac565b915f611c858286611988565b525b01906119b2565b909460a0611c9c8787611988565b510151151580611d2d575b611cd0575b611cb76001916116ac565b95611ccb611cc58286611988565b60019052565b611c87565b611d096116e4611ce36119d08989611988565b611cf260606119ed8b8b611988565b60a0611cfe8b8b611988565b5101519133906125c4565b15611cac579490611d1b6001916116ac565b915f611d278286611988565b52611c87565b50611d373361163a565b611ca7565b50611d1b6001916116ac565b611d60915060203d81116118655761185781836106ef565b5f611bc7565b611d7560206119ed8488611988565b611bc9565b611d1b6001916116ac565b611dac611d956119d08488611988565b6001600160a01b03165f52601860205260405f2090565b5460c0611db98488611988565b51015103611d7a57611dd1611d956119d08488611988565b611ddb81546116ac565b9055611b46565b611df56117416101006119ed8589611988565b3314611ac057611d1b6001916116ac565b86611e11818a611988565b51516001600160a01b03165f9081526018602052604090205497611aa49d611a956101006116e49f61012095611a8f60e0611a4a611a9b986119ed95611988565b93505090611e5f3361163a565b611e6557565b611e6f843361271b565b50565b909291333b1561114c575f81611eb386611e9d336001600160a01b03165f52601760205260405f2090565b906001600160a01b03165f5260205260405f2090565b5410611f9557611ed885611e9d336001600160a01b03165f52601760205260405f2090565b611ee383825461190c565b90555f905b8351821015611f5957611f0790611eff8386611988565b51519061140a565b90828211611f405780611f1c60019286611988565b5151611f376109c689611e9d611c0360206119ed888d611988565b90550190611ee8565b6307c83fcf60e41b5f526004829052602483905260445ffd5b925050919250818103611f80575050611f713361163a565b611f7757565b611e6f3361266d565b6307c83fcf60e41b5f5260045260245260445ffd5b631e9acf1760e31b5f5260045ffd5b602081016020825282518091526040820191602060408360051b8301019401925f915b838310611fd657505050505090565b9091929394602080612018600193603f19868203018752606060408b51805184526001600160a01b038682015116868501520151918160408201520190610362565b97019301930191939290611fc7565b805191908290602001825e015f815290565b908160209103126100155751610a2f81610791565b919893969095949297600b5460205f61208f6120756120838c604051928391878301611fa4565b03601f1981018352826106ef565b60405191828092612027565b039060025afa1561186c576120b99183886116e4938c8f8f905f51855f146123c3578b8d95612815565b6118da576001600160a01b03859116806123b4575b5061237e575b6120f388611e9d836001600160a01b03165f52601760205260405f2090565b546120fe878961140a565b11611f95575f9361210f878961140a565b6121396121318b611e9d866001600160a01b03165f52601760205260405f2090565b91825461190c565b90555f965f955b87518710156122e35761215790611eff888a611988565b958a61216b6116e46040611b58858d611988565b156122ae57506121b661218b6117416117415f546001600160a01b031690565b60206040612199858d611988565b510151604051809481926310d9158b60e31b835260048301611690565b0381845afa801561186c578d925f91612280575b5061220c575b5090896122036109c6600194611e9d6121e9868f611988565b5151946001600160a01b03165f52601760205260405f2090565b90550195612140565b899a50602091506040612222846122419c611988565b5101519060405180809c8194630d3dcb9f60e01b835260048301611690565b03915afa90811561186c57808c928b9a5f91612262575b509a5091906121d0565b61227a915060203d81116118655761185781836106ef565b5f612258565b6122a1915060203d81116122a7575b61229981836106ef565b810190612039565b5f6121ca565b503d61228f565b90889950806122bd818b611988565b51602001516001600160a01b03169a6109c6600194611e9d6121e98f9561220395611988565b92975094509450969196959095818103611f805750506123023361163a565b15612355576109c661232b916123173361266d565b50335f908152601760205260409020611e9d565b90555b156117e0576104fc916117c66117d3926001600160a01b03165f52601960205260405f2090565b6109c661237791611e9d866001600160a01b03165f52601760205260405f2090565b905561232e565b6123a06118b3836117c6846001600160a01b03165f52601960205260405f2090565b156120d457631849850b60e01b5f5260045ffd5b905033036118cb57835f6120ce565b8b6123df816001600160a01b03165f52601860205260405f2090565b5495612815565b6006546001600160a01b03811615610015575f8091368280378136915af43d5f803e15612411573d5ff35b3d5ffd5b604051906124246040836106ef565b600582526466616c736560d81b6020830152565b604051906124476040836106ef565b60048252637472756560e01b6020830152565b949290969593916040519788966020880161247491612027565b600b60fa1b815260010161248791612027565b600b60fa1b815260010161249a91612027565b600b60fa1b81526001016124ad91612027565b600b60fa1b81526001016124c091612027565b600b60fa1b81526001016124d391612027565b600b60fa1b81526001016124e691612027565b03601f19810183526104fc90836106ef565b9461253a612534612534612534610a2f9e9c9761251e6125579c979f9a9b9d989d61295d565b9c6001600160a01b038116612587575099612b31565b9361295d565b931561257c5761255161254b612438565b95612b31565b9561245a565b90604051906125676040836106ef565b600382526270617960e81b6020830152612c16565b61255161254b612415565b6125919150612b31565b99612b31565b90815181519081811493846125ae575b5050505090565b602092939450820120920120145f8080806125a7565b6001600160a01b03909291921691825f5260176020526125f88260405f20906001600160a01b03165f5260205260405f2090565b54908482101561260b5750505050505f90565b846001600160a01b0392612662955f5260176020520361263f8460405f20906001600160a01b03165f5260205260405f2090565b55165f52601760205260405f20906001600160a01b03165f5260205260405f2090565b908154019055600190565b601154801581800460011417156102da576001600160a01b038216805f52601760205260405f206126bb6001600160a01b03600e54168092906001600160a01b03165f5260205260405f2090565b5492808401938481116102da57612716946126f86126fe946109a4965f52601760205260405f20906001600160a01b03165f5260205260405f2090565b5561140a565b926001600160a01b03165f52601760205260405f2090565b541490565b906127289060115461192f565b906001600160a01b038116805f52601760205260405f20916127676001600160a01b03600e54168094906001600160a01b03165f5260205260405f2090565b549384018094116102da578361279f61271694610a9c945f52601760205260405f20906001600160a01b03165f5260205260405f2090565b556001600160a01b03165f52601760205260405f2090565b6113db6040516020810190428252446040820152604081526127da6060826106ef565b51902006600101806001116102da5790565b604051906127fb6040836106ef565b600b82526a646973706572736550617960a81b6020830152565b61282a9099979491989996939695929561295d565b9560405195639201de5560e01b875260048701525f8660248173__$35ea76b460e6affb63c860aedde9e1747c$__5af495861561186c575f96612896575b5091610a2f99939161253a6125346125346125346128879a9997612b31565b906128906127ec565b90612c16565b999391955093913d805f8c3e6128ac818c6106ef565b8a01996020818c03126100155780519067ffffffffffffffff82116100155701958a601f88011215610015578651966128e488610731565b9b6128f26040519d8e6106ef565b888d526020898301011161001557612534612534612534610a2f9e5f60208d6128879e8261253a99018386015e830101529a505050505091939994909294612868565b9061293f82610731565b61294c60405191826106ef565b828152809261196a601f1991610731565b805f9172184f03e93ff9f4daa797ed6e38ed64bf6a1f0160401b821015612a90575b806d04ee2d6d415b85acef8100000000600a921015612a74575b662386f26fc10000811015612a5f575b6305f5e100811015612a4d575b612710811015612a3d575b6064811015612a2e575b1015612a23575b612a0e60216129e360018501612935565b938401015b5f1901916f181899199a1a9b1b9c1cb0b131b232b360811b600a82061a8353600a900490565b8015612a1e57612a0e90916129e8565b505090565b6001909101906129d2565b600290606490049301926129cb565b60049061271090049301926129c1565b6008906305f5e10090049301926129b6565b601090662386f26fc1000090049301926129a9565b6020906d04ee2d6d415b85acef81000000009004930192612999565b506040915072184f03e93ff9f4daa797ed6e38ed64bf6a1f0160401b810461297f565b60405190612ac26040836106ef565b601082526f181899199a1a9b1b9c1cb0b131b232b360811b6020830152565b60405160609190612af283826106ef565b602a815291601f1901366020840137565b80511561199c5760200190565b80516001101561199c5760210190565b90815181101561199c570160200190565b6001600160a01b0316612b42612ab3565b90612b4b612ae1565b916030612b5784612b03565b536078612b6384612b10565b535f5b60148110612b745750505090565b612b7d816113e0565b602081101561199c57612bab90612b9d9085901a60041c600f1684612b20565b516001600160f81b03191690565b612bc9612bbf612bba84611919565b6113ee565b915f1a9186612b20565b53612bd3816113e0565b90602082101561199c57612bf1612b9d600f866001951a1685612b20565b612c0f612c05612c0084611919565b6113fc565b915f1a9187612b20565b5301612b66565b612075612c37936001612c37612c4595826040519889976020890190612027565b600b60fa1b81520190612027565b612075612c97612c55835161295d565b92604051928391612c9160208401967f19457468657265756d205369676e6564204d6573736167653a0a0000000000008852603a850190612027565b90612027565b5190206041825103612d4a57815f916020809401519160606040820151910151841a92601b8410612d33575b90612d0791612ce160ff8616601b8114908115612d28575b50612da1565b604051948594859094939260ff6060936080840197845216602083015260408201520152565b838052039060015afa1561186c576001600160a01b03805f51921691161490565b601c9150145f612cdb565b9290612d41612d0792612d8f565b93909150612cc3565b60405162461bcd60e51b815260206004820152601860248201527f496e76616c6964207369676e6174757265206c656e67746800000000000000006044820152606490fd5b60ff601b9116019060ff82116102da57565b15612da857565b60405162461bcd60e51b815260206004820152601760248201527f496e76616c6964207369676e61747572652076616c75650000000000000000006044820152606490fdfea2646970667358221220c8f3fab26895e2b0c28d6df68c958395b19ee7b599d3b2440ae9376cc0ab64fd64736f6c634300081a0033","linkReferences":{"src/library/AdvancedStrings.sol":{"AdvancedStrings":[{"start":12017,"length":20}]}}},"methodIdentifiers":{"_setupNameServiceAndTreasuryAddress(address,address)":"6a84190b","acceptAdmin()":"0e18b681","acceptImplementation()":"15ba56e5","addAmountToUser(address,address,uint256)":"6c9fa638","addBalance(address,address,uint256)":"d3bca884","caPay(address,address,uint256)":"c898a6e9","disperseCaPay((uint256,address)[],address,uint256)":"a7a096f6","dispersePay(address,(uint256,address,string)[],address,uint256,uint256,uint256,bool,address,bytes)":"ef83c1d6","getBalance(address,address)":"d4fac45d","getCurrentAdmin()":"643d430c","getCurrentImplementation()":"29cca569","getEraPrincipalToken()":"eaa4d6ca","getEvvmID()":"17c85152","getEvvmMetadata()":"0faff8e8","getIfUsedAsyncNonce(address,uint256)":"d0e3692d","getNameServiceAddress()":"3a8cd872","getNextCurrentSyncNonce(address)":"6cd30148","getNextFisherDepositNonce(address)":"4234a706","getPrincipalTokenTotalSupply()":"47ecd0f6","getProposalAdmin()":"91afcf5c","getProposalImplementation()":"4b4a293a","getRewardAmount()":"09a69f57","getStakingContractAddress()":"6afe5795","getTimeToAcceptAdmin()":"73d867f5","getTimeToAcceptImplementation()":"8bf6b935","getWhitelistTokenToBeAdded()":"94e961c9","getWhitelistTokenToBeAddedDateToSet()":"954236dc","isAddressStaker(address)":"286b4b44","pay(address,address,string,address,uint256,uint256,uint256,bool,address,bytes)":"2e9621cb","payMultiple((address,address,string,address,uint256,uint256,uint256,bool,address,bytes)[])":"8e006981","pointStaker(address,bytes1)":"adb6233f","proposeAdmin(address)":"147bf6c4","proposeImplementation(address)":"9dd18c15","recalculateReward()":"5300e162","rejectProposalAdmin()":"b38c950a","rejectUpgrade()":"3f54542a","removeAmountFromUser(address,address,uint256)":"76e6eb7e","setEvvmID(uint256)":"01ed3f51","setNameServiceAddress(address)":"9ce6fa65","setPointStaker(address,bytes1)":"e8163dda"},"id":63}