{"abi":[{"type":"constructor","inputs":[{"name":"_evvmAddress","type":"address","internalType":"address"},{"name":"_initialOwner","type":"address","internalType":"address"}],"stateMutability":"nonpayable"},{"type":"function","name":"acceptChangeEvvmAddress","inputs":[],"outputs":[],"stateMutability":"nonpayable"},{"type":"function","name":"acceptOffer","inputs":[{"name":"user","type":"address","internalType":"address"},{"name":"username","type":"string","internalType":"string"},{"name":"offerID","type":"uint256","internalType":"uint256"},{"name":"nonce","type":"uint256","internalType":"uint256"},{"name":"signature","type":"bytes","internalType":"bytes"},{"name":"priorityFee_EVVM","type":"uint256","internalType":"uint256"},{"name":"nonce_EVVM","type":"uint256","internalType":"uint256"},{"name":"priorityFlag_EVVM","type":"bool","internalType":"bool"},{"name":"signature_EVVM","type":"bytes","internalType":"bytes"}],"outputs":[],"stateMutability":"nonpayable"},{"type":"function","name":"acceptProposeAdmin","inputs":[],"outputs":[],"stateMutability":"nonpayable"},{"type":"function","name":"addCustomMetadata","inputs":[{"name":"user","type":"address","internalType":"address"},{"name":"identity","type":"string","internalType":"string"},{"name":"value","type":"string","internalType":"string"},{"name":"nonce","type":"uint256","internalType":"uint256"},{"name":"signature","type":"bytes","internalType":"bytes"},{"name":"priorityFee_EVVM","type":"uint256","internalType":"uint256"},{"name":"nonce_EVVM","type":"uint256","internalType":"uint256"},{"name":"priorityFlag_EVVM","type":"bool","internalType":"bool"},{"name":"signature_EVVM","type":"bytes","internalType":"bytes"}],"outputs":[],"stateMutability":"nonpayable"},{"type":"function","name":"cancelChangeEvvmAddress","inputs":[],"outputs":[],"stateMutability":"nonpayable"},{"type":"function","name":"cancelProposeAdmin","inputs":[],"outputs":[],"stateMutability":"nonpayable"},{"type":"function","name":"cancelWithdrawPrincipalTokens","inputs":[],"outputs":[],"stateMutability":"nonpayable"},{"type":"function","name":"checkIfNameServiceNonceIsAvailable","inputs":[{"name":"_user","type":"address","internalType":"address"},{"name":"_nonce","type":"uint256","internalType":"uint256"}],"outputs":[{"name":"","type":"bool","internalType":"bool"}],"stateMutability":"view"},{"type":"function","name":"claimWithdrawPrincipalTokens","inputs":[],"outputs":[],"stateMutability":"nonpayable"},{"type":"function","name":"flushCustomMetadata","inputs":[{"name":"user","type":"address","internalType":"address"},{"name":"identity","type":"string","internalType":"string"},{"name":"nonce","type":"uint256","internalType":"uint256"},{"name":"signature","type":"bytes","internalType":"bytes"},{"name":"priorityFee_EVVM","type":"uint256","internalType":"uint256"},{"name":"nonce_EVVM","type":"uint256","internalType":"uint256"},{"name":"priorityFlag_EVVM","type":"bool","internalType":"bool"},{"name":"signature_EVVM","type":"bytes","internalType":"bytes"}],"outputs":[],"stateMutability":"nonpayable"},{"type":"function","name":"flushUsername","inputs":[{"name":"user","type":"address","internalType":"address"},{"name":"username","type":"string","internalType":"string"},{"name":"nonce","type":"uint256","internalType":"uint256"},{"name":"signature","type":"bytes","internalType":"bytes"},{"name":"priorityFee_EVVM","type":"uint256","internalType":"uint256"},{"name":"nonce_EVVM","type":"uint256","internalType":"uint256"},{"name":"priorityFlag_EVVM","type":"bool","internalType":"bool"},{"name":"signature_EVVM","type":"bytes","internalType":"bytes"}],"outputs":[],"stateMutability":"nonpayable"},{"type":"function","name":"getAdmin","inputs":[],"outputs":[{"name":"","type":"address","internalType":"address"}],"stateMutability":"view"},{"type":"function","name":"getAdminFullDetails","inputs":[],"outputs":[{"name":"currentAdmin","type":"address","internalType":"address"},{"name":"proposalAdmin","type":"address","internalType":"address"},{"name":"timeToAcceptAdmin","type":"uint256","internalType":"uint256"}],"stateMutability":"view"},{"type":"function","name":"getAmountOfCustomMetadata","inputs":[{"name":"_username","type":"string","internalType":"string"}],"outputs":[{"name":"","type":"uint256","internalType":"uint256"}],"stateMutability":"view"},{"type":"function","name":"getCustomMetadataMaxSlotsOfIdentity","inputs":[{"name":"_username","type":"string","internalType":"string"}],"outputs":[{"name":"","type":"uint256","internalType":"uint256"}],"stateMutability":"view"},{"type":"function","name":"getEvvmAddress","inputs":[],"outputs":[{"name":"","type":"address","internalType":"address"}],"stateMutability":"view"},{"type":"function","name":"getEvvmAddressFullDetails","inputs":[],"outputs":[{"name":"currentEvvmAddress","type":"address","internalType":"address"},{"name":"proposalEvvmAddress","type":"address","internalType":"address"},{"name":"timeToAcceptEvvmAddress","type":"uint256","internalType":"uint256"}],"stateMutability":"view"},{"type":"function","name":"getExpireDateOfIdentity","inputs":[{"name":"_identity","type":"string","internalType":"string"}],"outputs":[{"name":"","type":"uint256","internalType":"uint256"}],"stateMutability":"view"},{"type":"function","name":"getFullCustomMetadataOfIdentity","inputs":[{"name":"_username","type":"string","internalType":"string"}],"outputs":[{"name":"","type":"string[]","internalType":"string[]"}],"stateMutability":"view"},{"type":"function","name":"getIdentityBasicMetadata","inputs":[{"name":"_username","type":"string","internalType":"string"}],"outputs":[{"name":"","type":"address","internalType":"address"},{"name":"","type":"uint256","internalType":"uint256"}],"stateMutability":"view"},{"type":"function","name":"getLengthOfOffersUsername","inputs":[{"name":"_username","type":"string","internalType":"string"}],"outputs":[{"name":"length","type":"uint256","internalType":"uint256"}],"stateMutability":"view"},{"type":"function","name":"getOffersOfUsername","inputs":[{"name":"_username","type":"string","internalType":"string"}],"outputs":[{"name":"offers","type":"tuple[]","internalType":"struct NameService.OfferMetadata[]","components":[{"name":"offerer","type":"address","internalType":"address"},{"name":"expireDate","type":"uint256","internalType":"uint256"},{"name":"amount","type":"uint256","internalType":"uint256"}]}],"stateMutability":"view"},{"type":"function","name":"getOwnerOfIdentity","inputs":[{"name":"_username","type":"string","internalType":"string"}],"outputs":[{"name":"","type":"address","internalType":"address"}],"stateMutability":"view"},{"type":"function","name":"getPriceOfRegistration","inputs":[{"name":"username","type":"string","internalType":"string"}],"outputs":[{"name":"","type":"uint256","internalType":"uint256"}],"stateMutability":"view"},{"type":"function","name":"getPriceToAddCustomMetadata","inputs":[],"outputs":[{"name":"price","type":"uint256","internalType":"uint256"}],"stateMutability":"view"},{"type":"function","name":"getPriceToFlushCustomMetadata","inputs":[{"name":"_identity","type":"string","internalType":"string"}],"outputs":[{"name":"price","type":"uint256","internalType":"uint256"}],"stateMutability":"view"},{"type":"function","name":"getPriceToFlushUsername","inputs":[{"name":"_identity","type":"string","internalType":"string"}],"outputs":[{"name":"price","type":"uint256","internalType":"uint256"}],"stateMutability":"view"},{"type":"function","name":"getPriceToRemoveCustomMetadata","inputs":[],"outputs":[{"name":"price","type":"uint256","internalType":"uint256"}],"stateMutability":"view"},{"type":"function","name":"getProposedWithdrawAmountFullDetails","inputs":[],"outputs":[{"name":"proposalAmountToWithdrawTokens","type":"uint256","internalType":"uint256"},{"name":"timeToAcceptAmountToWithdrawTokens","type":"uint256","internalType":"uint256"}],"stateMutability":"view"},{"type":"function","name":"getSingleCustomMetadataOfIdentity","inputs":[{"name":"_username","type":"string","internalType":"string"},{"name":"_key","type":"uint256","internalType":"uint256"}],"outputs":[{"name":"","type":"string","internalType":"string"}],"stateMutability":"view"},{"type":"function","name":"getSingleOfferOfUsername","inputs":[{"name":"_username","type":"string","internalType":"string"},{"name":"_offerID","type":"uint256","internalType":"uint256"}],"outputs":[{"name":"offer","type":"tuple","internalType":"struct NameService.OfferMetadata","components":[{"name":"offerer","type":"address","internalType":"address"},{"name":"expireDate","type":"uint256","internalType":"uint256"},{"name":"amount","type":"uint256","internalType":"uint256"}]}],"stateMutability":"view"},{"type":"function","name":"hashUsername","inputs":[{"name":"_username","type":"string","internalType":"string"},{"name":"_randomNumber","type":"uint256","internalType":"uint256"}],"outputs":[{"name":"","type":"bytes32","internalType":"bytes32"}],"stateMutability":"pure"},{"type":"function","name":"isUsernameAvailable","inputs":[{"name":"_username","type":"string","internalType":"string"}],"outputs":[{"name":"","type":"bool","internalType":"bool"}],"stateMutability":"view"},{"type":"function","name":"makeOffer","inputs":[{"name":"user","type":"address","internalType":"address"},{"name":"username","type":"string","internalType":"string"},{"name":"expireDate","type":"uint256","internalType":"uint256"},{"name":"amount","type":"uint256","internalType":"uint256"},{"name":"nonce","type":"uint256","internalType":"uint256"},{"name":"signature","type":"bytes","internalType":"bytes"},{"name":"priorityFee_EVVM","type":"uint256","internalType":"uint256"},{"name":"nonce_EVVM","type":"uint256","internalType":"uint256"},{"name":"priorityFlag_EVVM","type":"bool","internalType":"bool"},{"name":"signature_EVVM","type":"bytes","internalType":"bytes"}],"outputs":[{"name":"offerID","type":"uint256","internalType":"uint256"}],"stateMutability":"nonpayable"},{"type":"function","name":"preRegistrationUsername","inputs":[{"name":"user","type":"address","internalType":"address"},{"name":"hashPreRegisteredUsername","type":"bytes32","internalType":"bytes32"},{"name":"nonce","type":"uint256","internalType":"uint256"},{"name":"signature","type":"bytes","internalType":"bytes"},{"name":"priorityFee_EVVM","type":"uint256","internalType":"uint256"},{"name":"nonce_EVVM","type":"uint256","internalType":"uint256"},{"name":"priorityFlag_EVVM","type":"bool","internalType":"bool"},{"name":"signature_EVVM","type":"bytes","internalType":"bytes"}],"outputs":[],"stateMutability":"nonpayable"},{"type":"function","name":"proposeAdmin","inputs":[{"name":"_adminToPropose","type":"address","internalType":"address"}],"outputs":[],"stateMutability":"nonpayable"},{"type":"function","name":"proposeChangeEvvmAddress","inputs":[{"name":"_newEvvmAddress","type":"address","internalType":"address"}],"outputs":[],"stateMutability":"nonpayable"},{"type":"function","name":"proposeWithdrawPrincipalTokens","inputs":[{"name":"_amount","type":"uint256","internalType":"uint256"}],"outputs":[],"stateMutability":"nonpayable"},{"type":"function","name":"registrationUsername","inputs":[{"name":"user","type":"address","internalType":"address"},{"name":"username","type":"string","internalType":"string"},{"name":"clowNumber","type":"uint256","internalType":"uint256"},{"name":"nonce","type":"uint256","internalType":"uint256"},{"name":"signature","type":"bytes","internalType":"bytes"},{"name":"priorityFee_EVVM","type":"uint256","internalType":"uint256"},{"name":"nonce_EVVM","type":"uint256","internalType":"uint256"},{"name":"priorityFlag_EVVM","type":"bool","internalType":"bool"},{"name":"signature_EVVM","type":"bytes","internalType":"bytes"}],"outputs":[],"stateMutability":"nonpayable"},{"type":"function","name":"removeCustomMetadata","inputs":[{"name":"user","type":"address","internalType":"address"},{"name":"identity","type":"string","internalType":"string"},{"name":"key","type":"uint256","internalType":"uint256"},{"name":"nonce","type":"uint256","internalType":"uint256"},{"name":"signature","type":"bytes","internalType":"bytes"},{"name":"priorityFee_EVVM","type":"uint256","internalType":"uint256"},{"name":"nonce_EVVM","type":"uint256","internalType":"uint256"},{"name":"priorityFlag_EVVM","type":"bool","internalType":"bool"},{"name":"signature_EVVM","type":"bytes","internalType":"bytes"}],"outputs":[],"stateMutability":"nonpayable"},{"type":"function","name":"renewUsername","inputs":[{"name":"user","type":"address","internalType":"address"},{"name":"username","type":"string","internalType":"string"},{"name":"nonce","type":"uint256","internalType":"uint256"},{"name":"signature","type":"bytes","internalType":"bytes"},{"name":"priorityFee_EVVM","type":"uint256","internalType":"uint256"},{"name":"nonce_EVVM","type":"uint256","internalType":"uint256"},{"name":"priorityFlag_EVVM","type":"bool","internalType":"bool"},{"name":"signature_EVVM","type":"bytes","internalType":"bytes"}],"outputs":[],"stateMutability":"nonpayable"},{"type":"function","name":"seePriceToRenew","inputs":[{"name":"_identity","type":"string","internalType":"string"}],"outputs":[{"name":"price","type":"uint256","internalType":"uint256"}],"stateMutability":"view"},{"type":"function","name":"strictVerifyIfIdentityExist","inputs":[{"name":"_username","type":"string","internalType":"string"}],"outputs":[{"name":"","type":"bool","internalType":"bool"}],"stateMutability":"view"},{"type":"function","name":"verifyIfIdentityExists","inputs":[{"name":"_identity","type":"string","internalType":"string"}],"outputs":[{"name":"","type":"bool","internalType":"bool"}],"stateMutability":"view"},{"type":"function","name":"verifyStrictAndGetOwnerOfIdentity","inputs":[{"name":"_username","type":"string","internalType":"string"}],"outputs":[{"name":"answer","type":"address","internalType":"address"}],"stateMutability":"view"},{"type":"function","name":"withdrawOffer","inputs":[{"name":"user","type":"address","internalType":"address"},{"name":"username","type":"string","internalType":"string"},{"name":"offerID","type":"uint256","internalType":"uint256"},{"name":"nonce","type":"uint256","internalType":"uint256"},{"name":"signature","type":"bytes","internalType":"bytes"},{"name":"priorityFee_EVVM","type":"uint256","internalType":"uint256"},{"name":"nonce_EVVM","type":"uint256","internalType":"uint256"},{"name":"priorityFlag_EVVM","type":"bool","internalType":"bool"},{"name":"signature_EVVM","type":"bytes","internalType":"bytes"}],"outputs":[],"stateMutability":"nonpayable"},{"type":"error","name":"AcceptOfferVerificationFailed","inputs":[]},{"type":"error","name":"EmptyCustomMetadata","inputs":[]},{"type":"error","name":"FlushUsernameVerificationFailed","inputs":[]},{"type":"error","name":"InvalidKey","inputs":[]},{"type":"error","name":"InvalidSignatureOnNameService","inputs":[]},{"type":"error","name":"InvalidUsername","inputs":[{"name":"","type":"bytes1","internalType":"bytes1"}]},{"type":"error","name":"NonceAlreadyUsed","inputs":[]},{"type":"error","name":"PreRegistrationNotValid","inputs":[]},{"type":"error","name":"RenewUsernameVerificationFailed","inputs":[]},{"type":"error","name":"SenderIsNotAdmin","inputs":[]},{"type":"error","name":"UserIsNotOwnerOfIdentity","inputs":[]},{"type":"error","name":"UserIsNotOwnerOfOffer","inputs":[]},{"type":"error","name":"UsernameAlreadyRegistered","inputs":[]}],"bytecode":{"object":"0x608034608657601f6143ad38819003918201601f19168301916001600160401b03831184841017608a578084926040948552833981010312608657604b6020604583609e565b9201609e565b600780546001600160a01b039384166001600160a01b031991821617909155600a80549290931691161790556040516142fb90816100b28239f35b5f80fd5b634e487b7160e01b5f52604160045260245ffd5b51906001600160a01b038216820360865756fe60806040526004361015610011575f80fd5b5f3560e01c80627802df146102e9578063044695cb146102e45780630c78d2c6146102df5780630d1ffe3a146102da5780630d3dcb9f146102d5578063147bf6c4146102d05780631f4131fb146102cb57806322afca38146102c657806324866f15146102c157806335723e23146102bc57806336e7a1b8146102625780633ca44e54146102b757806343a82d67146102b257806348ffba55146102ad57806349166379146102a85780634cfe021f146102a357806354dc585d1461029e5780635548a762146102995780635761d8ed146102945780635d232a551461028f5780636b5bb1ca1461027b5780636e9960c31461028a5780637126b2a31461028557806375dab53b146102805780637bd9da7a1461027b57806386c8ac581461027657806388ecb91f146102715780638adf39271461026c5780638e3bde431461026757806399e7bac214610262578063a6ba51ca1461025d578063a9e6f37f14610258578063afabc8db14610253578063b19517dd1461024e578063bc91a42814610249578063bcd5a47c14610244578063c97da33e1461023f578063cf1dc1461461023a578063d2234a1a14610235578063d7fd313414610230578063d82e5d8b1461022b578063e7849f6214610226578063eba5e53e14610221578063f69c6dec1461021c578063f6d0ecbe146102175763fe7ab68314610212575f80fd5b6125bb565b6124ec565b6124c3565b612439565b6123f6565b612344565b612279565b6121f5565b6121c8565b612171565b612158565b612140565b61207b565b611ce3565b611c98565b611c39565b610d73565b611935565b611697565b61165f565b611647565b6115d1565b61162f565b61160d565b6115e7565b611558565b61131a565b61124e565b611236565b611180565b611144565b6110bd565b611041565b610d8d565b610aec565b610ab4565b610a8d565b610a6d565b6109f3565b6109ba565b610994565b610938565b61060d565b346103cf5760203660031901126103cf576004356001600160a01b03600a54163303610434576103336103276103276007546001600160a01b031690565b6001600160a01b031690565b60405163d4fac45d60e01b81523060048201526001602482015290602082604481845afa91821561040a575f9261040f575b506020600491604051928380926309a69f5760e01b82525afa91821561040a576103a761039e85946103ad945f916103db575b50612647565b600d54906126a6565b906126b3565b1080156103d3575b6103cf576005556103cd6103c842612657565b600655565b005b5f80fd5b5080156103b5565b6103fd915060203d602011610403575b6103f581836104a1565b810190612619565b5f610398565b503d6103eb565b612628565b600491925061042c602091823d8411610403576103f581836104a1565b929150610365565b636587b01b60e11b5f5260045ffd5b600435906001600160a01b03821682036103cf57565b35906001600160a01b03821682036103cf57565b634e487b7160e01b5f52604160045260245ffd5b606081019081106001600160401b0382111761049c57604052565b61046d565b90601f801991011681019081106001600160401b0382111761049c57604052565b604051906104d160a0836104a1565b565b604051906104d16060836104a1565b6001600160401b03811161049c57601f01601f191660200190565b81601f820112156103cf57602081359101610517826104e2565b9261052560405194856104a1565b828452828201116103cf57815f92602092838601378301015290565b801515036103cf57565b60e435906104d182610541565b60c435906104d182610541565b61010435906104d182610541565b35906104d182610541565b906101006003198301126103cf576105966004610459565b916024356001600160401b0381116103cf57816105b5916004016104fd565b91604435916064356001600160401b0381116103cf57816105d8916004016104fd565b916084359160a435916105eb60c4610573565b9160e435906001600160401b0382116103cf5761060a916004016104fd565b90565b346103cf5761061b3661057e565b919294936001600160a01b0388979816805f52600360205260405f20865f5260205260ff60405f205416610900576040516001600160a01b0390602081610662818e6126c0565b5f8152030190205416036108f157600161067b896126d2565b015442108015906108c5575b6108b65760049060206106a86103276103276007546001600160a01b031690565b604051630be428a960e11b815293849182905afa90811561040a57868a8a6106db946106df965f91610897575b506138f3565b1590565b610888576106f792856106f189612cf4565b88613a04565b5f5b6002610704866126d2565b0154811015610738578061073261072d600193610720896126ee565b905f5260205260405f2090565b612852565b016106f9565b506004849360206107576103276103276007546001600160a01b031690565b6040516309a69f5760e01b815293849182905afa93841561040a576103cd956107b96107b3610845936107ae61079b61085c9a610720995f91610869575b50612776565b60026107a6876126d2565b01549061283f565b6126a6565b33613a46565b6107f260036107c7836126d2565b0154916107d26104c2565b925f84525f60208501525f604085015260608401525f60808401526126d2565b815181546001600160a01b0319166001600160a01b03919091161781556080906004906020840151600182015560408401516002820155606084015160038201550191015160f81c60ff19825416179055565b6001600160a01b03165f52600360205260405f2090565b805460ff19166001179055565b610882915060203d602011610403576103f581836104a1565b8d610795565b63c75c7b3960e01b5f5260045ffd5b6108b0915060203d602011610403576103f581836104a1565b5f6106d5565b630571f47b60e01b5f5260045ffd5b50600160f81b6001600160f81b03196108ea60046108e28c6126d2565b015460f81b90565b1614610687565b6322de326160e11b5f5260045ffd5b623f613760e71b5f5260045ffd5b60206003198201126103cf57600435906001600160401b0382116103cf5761060a916004016104fd565b346103cf5760206109483661090e565b5f90610953816132c0565b61096a575b506001600160a01b0360405191168152f35b6001600160a01b0391508261098591604051928380926126c0565b5f81520301902054165f610958565b346103cf575f3660031901126103cf5760206001600160a01b0360075416604051908152f35b346103cf5760206001600160a01b036109e2826109d63661090e565b604051928380926126c0565b5f8152030190205416604051908152f35b346103cf5760203660031901126103cf57610a0c610443565b6001600160a01b03600a541690813303610434576001600160a01b0316908115908115610a63575b506103cf576001600160601b0360a01b600b541617600b55620151804201804211610a5e57600c55005b612633565b905081145f610a34565b346103cf576020610a85610a803661090e565b6128b1565b604051908152f35b346103cf5760206001610aa3826109d63661090e565b5f8152030190200154604051908152f35b346103cf575f3660031901126103cf576001600160a01b03600a5416330361043457600880546001600160a01b03191690555f600955005b346103cf57610afa3661057e565b9091936001600160a01b0360409896979851602081610b19818d6126c0565b5f81520301902054166001600160a01b0387168091036108f1575f52600360205260405f20875f5260205260ff60405f20541661090057600160f81b6001600160f81b0319610b6c60046108e28c6126d2565b16148015610d56575b610d47576004906020610b966103276103276007546001600160a01b031690565b604051630be428a960e11b815293849182905afa90811561040a57888a896106db94610bc9965f91610d28575b50613a9b565b61088857610be391610bda886130d7565b94848688613a04565b610bfb6103276103276007546001600160a01b031690565b604051630a1ad2d160e21b8152336004820152602081602481855afa90811561040a575f91610cf9575b50610c65575b6103cd61085c86610720876001610c418c6126d2565b01610c4c8154612678565b90556001600160a01b03165f52600360205260405f2090565b9060206004959492604051968780926309a69f5760e01b82525afa94851561040a576103cd96610cc46107b36001946107ae61085c9a61072099610c41975f92610cd0575b50610cb7610cbe91612787565b6064900490565b906126a6565b96505081939450610c2b565b610cbe919250610cf1610cb79160203d602011610403576103f581836104a1565b929150610caa565b610d1b915060203d602011610d21575b610d1381836104a1565b81019061291b565b5f610c25565b503d610d09565b610d41915060203d602011610403576103f581836104a1565b5f610bc3565b63d23f0ec360e01b5f5260045ffd5b506001610d62896126d2565b0154610d6d42612667565b10610b75565b346103cf575f3660031901126103cf576020610a85612930565b346103cf57610d9b3661057e565b919294936001600160a01b03604051602081610db7818c6126c0565b5f81520301902054166001600160a01b0389168091036108f1575f52600360205260405f20855f5260205260ff60405f205416610900576004906020610e0b6103276103276007546001600160a01b031690565b604051630be428a960e11b815293849182905afa90811561040a5786898b6106db94610e3e965f91610fc3575b50613ae1565b610888576002610e4d876126d2565b015415610fb457610e689285610e62886128b1565b89613a04565b5f5b6002610e75856126d2565b0154811015610e975780610e9161072d600193610720886126ee565b01610e6a565b508383610eb26103276103276007546001600160a01b031690565b604051630a1ad2d160e21b8152336004820152909490602081602481895afa90811561040a575f91610f95575b50610f15575b6103cd61085c85610720865f6002610efc896126d2565b01556001600160a01b03165f52600360205260405f2090565b92916020600495604051968780926309a69f5760e01b82525afa801561040a576002610efc61072094610f6a6107b361085c996107ae610f605f986103cd9e8a91610f765750612776565b876107a6876126d2565b94505050509192610ee5565b610f8f915060203d602011610403576103f581836104a1565b8f610795565b610fae915060203d602011610d2157610d1381836104a1565b86610edf565b6334b7a09160e01b5f5260045ffd5b610fdc915060203d602011610403576103f581836104a1565b5f610e38565b60406003198201126103cf57600435906001600160401b0382116103cf5761100c916004016104fd565b9060243590565b6104d1909291926060810193604080916001600160a01b038151168452602081015160208501520151910152565b346103cf57602061106b61105436610fe2565b929061105e612992565b50604051928380926126c0565b6001815203019020905f526020526110b960405f2060026040519161108f83610481565b6001600160a01b038154168352600181015460208401520154604082015260405191829182611013565b0390f35b346103cf575f3660031901126103cf576001600160a01b03600a541633036104345760095442106103cf5761112e6001600160a01b03600854165f6040805161110581610481565b83815282602082015201526001600160a01b03166001600160601b0360a01b6007541617600755565b600880546001600160a01b03191690555f600955005b346103cf575f3660031901126103cf57600754600854600954604080516001600160a01b03948516815293909216602084015290820152606090f35b346103cf576101203660031901126103cf5761119a610443565b6024356001600160401b0381116103cf576111b99036906004016104fd565b906044356001600160401b0381116103cf576111d99036906004016104fd565b6064356084356001600160401b0381116103cf576111fb9036906004016104fd565b60a4359060c4359261120b61054b565b9461010435976001600160401b0389116103cf576112306103cd9936906004016104fd565b976129e1565b346103cf576020610a856112493661090e565b612cf4565b346103cf575f3660031901126103cf57600a54600b54600c54604080516001600160a01b03948516815293909216602084015290820152606090f35b6101206003198201126103cf576112a16004610459565b916024356001600160401b0381116103cf57826112c0916004016104fd565b9160443591606435916084356001600160401b0381116103cf57816112e7916004016104fd565b9160a4359160c435916112fa60e4610573565b9161010435906001600160401b0382116103cf5761060a916004016104fd565b346103cf576113283661128a565b9097936001600160a01b03859794969716805f52600360205260405f20885f5260205260ff60405f205416610900576001600160a01b0361137c61136f876107208d61270b565b546001600160a01b031690565b1603611549576004602061139e6103276103276007546001600160a01b031690565b604051630be428a960e11b815292839182905afa91821561040a5788868b896113d2966106db965f9161152a575b50613ba5565b6108885760049785611517575b5050506113fc60026113f4836107208961270b565b015483613a46565b61141c61140c826107208861270b565b80546001600160a01b0319169055565b60206114366103276103276007546001600160a01b031690565b6040516309a69f5760e01b815297889182905afa95861561040a576114d586610cbe6114cf6114c860026114a0886114af6103cd9f61085c9f9d6107ae6107209f926108459e6107b3946114dd9f5f936114e2575b50896114a0610cbe936107206114a79461270b565b015461279d565b61031c900490565b610720836114c0836107208b61270b565b01549761270b565b60c7900490565b60021c90565b600d546126b3565b600d55565b6114a79193506114a0610cbe9361072061150b8e9460203d602011610403576103f581836104a1565b9694505093505061148b565b6115229286866139a8565b5f80806113df565b611543915060203d602011610403576103f581836104a1565b5f6113cc565b630504ed8560e21b5f5260045ffd5b346103cf576101003660031901126103cf57611572610443565b604435906064356001600160401b0381116103cf576115959036906004016104fd565b60a4356084356115a3610558565b9260e435956001600160401b0387116103cf576115c76103cd9736906004016104fd565b9560243590612daa565b346103cf5760206002610aa3826109d63661090e565b346103cf575f3660031901126103cf5760206001600160a01b03600a5416604051908152f35b346103cf5760206116256116203661090e565b61305c565b6040519015158152f35b346103cf576020610a856116423661090e565b6130d7565b346103cf57602061162561165a3661090e565b6132c0565b346103cf575f3660031901126103cf576001600160a01b03600a5416330361043457600b80546001600160a01b03191690555f600c55005b346103cf576116a53661128a565b91929795936001600160a01b036040989698516020816116c5818b6126c0565b5f81520301902054166001600160a01b0388168091036108f1575f52600360205260405f20885f5260205260ff60405f20541661090057600460206117186103276103276007546001600160a01b031690565b604051630be428a960e11b815292839182905afa91821561040a578987898b61174c966106db965f91611916575b50613cb6565b6108885783600261175c876126d2565b015411156119075761177192886106f1612930565b80600261177d846126d2565b0154036118755761085c9260026117aa846117a561072d610720966107206117b59b996126ee565b6126d2565b01610c4c8154613416565b6117cd6103276103276007546001600160a01b031690565b604051630a1ad2d160e21b8152336004820152909190602081602481865afa90811561040a575f91611856575b5061180157005b6020600492604051938480926309a69f5760e01b82525afa90811561040a576107ae6107b3926103cd945f916118375750612776565b611850915060203d602011610403576103f581836104a1565b5f610795565b61186f915060203d602011610d2157610d1381836104a1565b5f6117fa565b93919290935b6002611886866126d2565b01548110156118ce576001906118c86118b66118a1886126ee565b6118aa84612689565b5f5260205260405f2090565b6118c3836107208a6126ee565b613336565b0161187b565b506107206117b59360026117aa61085c95976117a561072d6118ef836126ee565b856118f9856126d2565b01545f5260205260405f2090565b630eda9c3d60e31b5f5260045ffd5b61192f915060203d602011610403576103f581836104a1565b5f611746565b346103cf576119433661128a565b9192936001600160a01b036040999897969951602081611963818c6126c0565b5f81520301902054166001600160a01b0389168091036108f1575f52600360205260405f20895f5260205260ff60405f205416610900576001600160a01b036119b261136f886107208b61270b565b16158015611c20575b611c1157600460206119db6103276103276007546001600160a01b031690565b604051630be428a960e11b815292839182905afa91821561040a578a888a8c611a0f966106db965f91611bf2575b50613d0f565b6108885783611bdf575b505050611a366002611a2e846107208761270b565b015485613a46565b611a6f611a4961136f846107208761270b565b611a52856126d2565b906001600160a01b03166001600160601b0360a01b825416179055565b611a7f61140c836107208661270b565b611a976103276103276007546001600160a01b031690565b604051630a1ad2d160e21b8152336004820152602081602481855afa90811561040a575f91611bc0575b50611afd575b506103cd61085c86610720876108456114dd6114d58a610cbe6114cf6114c860026114a08f610720836114c0836107208b61270b565b91602060049694959293604051978880926309a69f5760e01b82525afa95861561040a576114d586610cbe6114cf6114c860026114a088611b736103cd9f61085c9f9d6107ae6107209f926108459e6107b3946114dd9f5f93611b87575b506114c88a6114a0610cbe946107206114cf9561270b565b9a5050505050509597505050819450611ac7565b6114cf9193508a6114a0610cbe94610720611bb36114c89560203d602011610403576103f581836104a1565b9795505094505050611b5b565b611bd9915060203d602011610d2157610d1381836104a1565b5f611ac1565b611bea9284886139a8565b5f8080611a19565b611c0b915060203d602011610403576103f581836104a1565b5f611a09565b6351a658eb60e01b5f5260045ffd5b506001611c30876107208a61270b565b015442116119bb565b346103cf5760203660031901126103cf57611c52610443565b6001600160a01b03600a54163303610434576001600160a01b031680156103cf576001600160601b0360a01b6008541617600855620151804201804211610a5e57600955005b346103cf5760403660031901126103cf57611cb1610443565b6001600160a01b0360243591165f52600360205260405f20905f52602052602060ff60405f2054166040519015158152f35b346103cf57611cf13661128a565b919296956001600160a01b03899695991698895f52600360205260405f20865f5260205260ff60405f20541661090057896001600160a01b03611d3c600a546001600160a01b031690565b1603611fea575b611d4f6106db89613873565b611fdb5760046020611d6f6103276103276007546001600160a01b031690565b604051630be428a960e11b815292839182905afa91821561040a5787848b8b611da3966106db965f91611fbc575b50613e3d565b61088857611dc45f93611dca93611de9968b611dbe8c613504565b8b613a04565b86613594565b60405180938192639201de5560e01b8352600483019190602083019252565b038173__$35ea76b460e6affb63c860aedde9e1747c$__5af4801561040a57611e19915f91611f9a575b5061302c565b94611e2961032761136f886126d2565b14801590611f85575b611f765761072061085c92610845611e82956107f2611e5042612678565b91611e596104c2565b6001600160a01b03861681529260208401525f60408401525f60608401525f60808401526126d2565b611e9a6103276103276007546001600160a01b031690565b604051630a1ad2d160e21b8152336004820152602081602481855afa90811561040a575f91611f57575b50611ef3575b6103cd611ed6846126d2565b60045f918281558260018201558260028201558260038201550155565b916020600493604051948580926309a69f5760e01b82525afa92831561040a576107b3611ed6936107ae6103cd96611f32945f91611f38575b506127ae565b91611eca565b611f51915060203d602011610403576103f581836104a1565b5f611f2c565b611f70915060203d602011610d2157610d1381836104a1565b5f611ec4565b6321efd8cf60e11b5f5260045ffd5b506001611f91866126d2565b01544210611e32565b611fb691503d805f833e611fae81836104a1565b810190612fca565b5f611e13565b611fd5915060203d602011610403576103f581836104a1565b5f611d9d565b633efbb39b60e11b5f5260045ffd5b611ff388613d74565b611d43565b805180835260209291819084018484015e5f828201840152601f01601f1916010190565b602081016020825282518091526040820191602060408360051b8301019401925f915b83831061204e57505050505090565b909192939460208061206c600193603f198682030187528951611ff8565b9701930193019193929061203f565b346103cf576120893661090e565b600260405160208161209b81866126c0565b5f8152030190200154906120ae82613422565b916120bc60405193846104a1565b8083526120cb601f1991613422565b015f5b81811061212f5750505f5b60026120e4836126d2565b01548110156121215780612105612100600193610720866126ee565b613466565b61210f828661344d565b5261211a818561344d565b50016120d9565b604051806110b9858261201c565b8060606020809387010152016120ce565b346103cf576020610a856121533661090e565b613504565b346103cf576020610a8561216b36610fe2565b90613594565b346103cf5760406121813661090e565b60016121b360206001600160a01b038551828161219e81896126c0565b5f8152030190205416938551928380926126c0565b5f815203019020015482519182526020820152f35b346103cf575f3660031901126103cf576001600160a01b03600a54163303610434575f6005819055600655005b346103cf575f3660031901126103cf57604060055460065482519182526020820152f35b60206040818301928281528451809452019201905f5b81811061223c5750505090565b909192602060608261226e6001948851604080916001600160a01b038151168452602081015160208501520151910152565b01940192910161222f565b346103cf576122873661090e565b600360405160208161229981866126c0565b5f8152030190200154906122ac82613422565b916122ba60405193846104a1565b8083526122c9601f1991613422565b015f5b81811061232d5750505f5b60036122e2836126d2565b015481101561231f57806123036122fe6001936107208661270b565b6129b0565b61230d828661344d565b52612318818561344d565b50016122d7565b604051806110b98582612219565b602090612338612992565b828287010152016122cc565b346103cf576101403660031901126103cf5761235e610443565b6024356001600160401b0381116103cf5761237d9036906004016104fd565b906044359060643560843560a4356001600160401b0381116103cf576123a79036906004016104fd565b60c4359060e435926123b7610565565b9461012435976001600160401b0389116103cf576110b9996123e06123e69a36906004016104fd565b986135c0565b6040519081529081906020820190565b346103cf575f3660031901126103cf576001600160a01b03600a54168033036104345760065442106103cf5760055461242e91613a46565b5f6005819055600655005b346103cf575f3660031901126103cf576001600160a01b03600b54163381036103cf57600c5442106103cf576001600160a01b03905f6040805161247c81610481565b8381528260208201520152166001600160601b0360a01b600a541617600a556124bd5f6001600160a01b03166001600160601b0360a01b600b541617600b55565b5f600c55005b346103cf5760206116256124d63661090e565b613873565b90602061060a928181520190611ff8565b346103cf576125046124fd36610fe2565b91906126ee565b905f5260205260405f20604051905f9080549061252082612728565b80855291600181169081156125945750600114612554575b6110b984612548818603826104a1565b604051918291826124db565b5f90815260208120939250905b80821061257a5750909150810160200161254882612538565b919260018160209254838588010152019101909291612561565b60ff191660208087019190915292151560051b850190920192506125489150839050612538565b346103cf576125c93661090e565b5f9060015b156125e4575b6125de5f92612ce6565b916125ce565b6040516020816125f481856126c0565b6001815203019020825f52602052600160405f2001546125d457602082604051908152f35b908160209103126103cf575190565b6040513d5f823e3d90fd5b634e487b7160e01b5f52601160045260245ffd5b6113db0190816113db11610a5e57565b90620151808201809211610a5e57565b9063bbf81e008201809211610a5e57565b906301e285008201809211610a5e57565b9060018201809211610a5e57565b906107088201809211610a5e57565b91908201809211610a5e57565b91908203918211610a5e57565b805191908290602001825e015f815290565b60206126e491604051928380926126c0565b5f81520301902090565b602061270091604051928380926126c0565b600281520301902090565b602061271d91604051928380926126c0565b600181520301902090565b90600182811c92168015612756575b602083101461274257565b634e487b7160e01b5f52602260045260245ffd5b91607f1691612737565b81811061276b575050565b5f8155600101612760565b9081600502916005830403610a5e57565b90603282029180830460321490151715610a5e57565b9081156001838004141715610a5e57565b9081603202916032830403610a5e57565b9081600a0291600a830403610a5e57565b90816207a12002916207a120830403610a5e57565b90600582029180830460051490151715610a5e57565b90606482029180830460641490151715610a5e57565b906103e38202918083046103e31490151715610a5e57565b90607d820291808304607d1490151715610a5e57565b81810292918115918404141715610a5e57565b61285c8154612728565b9081612866575050565b81601f5f9311600114612877575055565b8183526020832061289391601f0160051c810190600101612760565b808252602082209081548360011b9084198560031b1c191617905555565b60049060206001600160a01b0360075416604051938480926309a69f5760e01b82525afa91821561040a576107a66128f661060a946002935f916128fc575b506127bf565b926126d2565b612915915060203d602011610403576103f581836104a1565b5f6128f0565b908160209103126103cf575161060a81610541565b600460206001600160a01b0360075416604051928380926309a69f5760e01b82525afa90811561040a575f91612973575b5080600a0290600a820403610a5e5790565b61298c915060203d602011610403576103f581836104a1565b5f612961565b6040519061299f82610481565b5f6040838281528260208201520152565b906040516129bd81610481565b6040600282946001600160a01b038154168452600181015460208501520154910152565b95929690979194936001600160a01b03612a0360208b604051928380926126c0565b5f81520301902054166001600160a01b0388168091036108f1575f52600360205260405f20885f5260205260ff60405f20541661090057855115610fb45760046020612a5d6103276103276007546001600160a01b031690565b604051630be428a960e11b815292839182905afa91821561040a5789888c8b612a91966106db965f91612bb9575b50613b4f565b61088857612aa292846106f1612930565b612aba6103276103276007546001600160a01b031690565b604051630a1ad2d160e21b8152336004820152602081602481855afa90811561040a575f91612b9a575b50612b27575b505061085c92916002612b1c866117a561072095612b17612b0d6104d19b6126ee565b866118f9866126d2565b612c1b565b01610c4c8154612ce6565b602060049160409695939651928380926309a69f5760e01b82525afa90811561040a576104d1966117a561072095612b8b6107b361085c9a6107ae612b78600299612b1c995f916118375750612776565b610cbe610cb7612b86612930565b612787565b95505096505081939450612aea565b612bb3915060203d602011610d2157610d1381836104a1565b5f612ae4565b612bd2915060203d602011610403576103f581836104a1565b5f612a8b565b9190601f8111612be757505050565b6104d1925f5260205f20906020601f840160051c83019310612c11575b601f0160051c0190612760565b9091508190612c04565b91909182516001600160401b03811161049c57612c4281612c3c8454612728565b84612bd8565b6020601f8211600114612c81578190612c729394955f92612c76575b50508160011b915f199060031b1c19161790565b9055565b015190505f80612c5e565b601f19821690612c94845f5260205f2090565b915f5b818110612cce57509583600195969710612cb6575b505050811b019055565b01515f1960f88460031b161c191690555f8080612cac565b9192602060018192868b015181550194019201612c97565b5f198114610a5e5760010190565b612d0c6103276103276007546001600160a01b031690565b6040516309a69f5760e01b8152602081600481855afa801561040a5760049360026107a66128f6612d46946020965f91612d9357506127bf565b91604051938480926309a69f5760e01b82525afa90811561040a5761060a925f92612d72575b506126a6565b612d8c91925060203d602011610403576103f581836104a1565b905f612d6c565b6129159150873d8911610403576103f581836104a1565b95929694909193966001600160a01b0387165f52600360205260405f20855f5260205260ff60405f205416610900576004906020612df66103276103276007546001600160a01b031690565b604051630be428a960e11b815293849182905afa90811561040a5786858a6106db94612e29965f91612fab575b50613bfa565b61088857612e5b945f9388612f98575b50505060405180948192639201de5560e01b8352600483019190602083019252565b038173__$35ea76b460e6affb63c860aedde9e1747c$__5af491821561040a57612edc93610845612e9961085c95610720945f91611f9a575061302c565b6107f2612ea542612697565b91612eae6104c2565b6001600160a01b03861681529260208401525f604084018190526060840152600160f81b60808401526126d2565b612ef46103276103276007546001600160a01b031690565b604051630a1ad2d160e21b8152336004820152602081602481855afa90811561040a575f91612f79575b50612f27575050565b6020600491604051928380926309a69f5760e01b82525afa91821561040a576104d1926107b3925f91612f5a57506126a6565b612f73915060203d602011610403576103f581836104a1565b5f612d6c565b612f92915060203d602011610d2157610d1381836104a1565b5f612f1e565b612fa39289896139a8565b5f8080612e39565b612fc4915060203d602011610403576103f581836104a1565b5f612e23565b6020818303126103cf578051906001600160401b0382116103cf570181601f820112156103cf57805190612ffd826104e2565b9261300b60405194856104a1565b828452602083830101116103cf57815f9260208093018386015e8301015290565b906104d161304e92604051938491600160fe1b602084015260218301906126c0565b03601f1981018452836104a1565b600160f81b6001600160f81b031961307860046108e2856126d2565b16036130c2576001600160a01b0361309261136f836126d2565b16159081156130ab575b50156130a6575f90565b600190565b600191506130b8906126d2565b015415155f61309c565b6130cd6001916126d2565b01546130a6575f90565b5f9060016130e4826126d2565b015442116132585760016131076130fa8361270b565b5f805260205260405f2090565b01546131ba575b50806131225750681b1ae4d6e2ef50000090565b6004602061313e6103276103276007546001600160a01b031690565b6040516309a69f5760e01b815292839182905afa90811561040a575f9161319b575b5061317561316d836127e5565b6103e8900490565b61317e826127d0565b101561318e5761060a91506127d0565b5061316d61060a916127e5565b6131b4915060203d602011610403576103f581836104a1565b5f613160565b91905f5b60036131c9856126d2565b015481101561324e574260016131e2836107208861270b565b0154118061322d575b6131f8575b6001016131be565b816002613208836107208861270b565b015411156131f057905060016002613223836107208761270b565b01549190506131f0565b506001600160a01b0361324661136f836107208861270b565b1615156131eb565b509091505f61310e565b5050600460206132766103276103276007546001600160a01b031690565b6040516309a69f5760e01b815292839182905afa801561040a5761060a915f916132a1575b506127d0565b6132ba915060203d602011610403576103f581836104a1565b5f61329b565b600160f81b6001600160f81b03196132dc60046108e2856126d2565b1603613321576001600160a01b036132f661136f836126d2565b161590811561330a575b50156130a6575f80fd5b60019150613317906126d2565b015415155f613300565b61332c6001916126d2565b01546130a6575f80fd5b9190918281146134115761334a8354612728565b6001600160401b03811161049c5761336681612c3c8454612728565b5f93601f82116001146133a057612c7292939482915f926133955750508160011b915f199060031b1c19161790565b015490505f80612c5e565b6133b2601f198316915f5260205f2090565b946133c0845f5260205f2090565b915f5b8181106133f9575095836001959697106133e157505050811b019055565b01545f1960f88460031b161c191690555f8080612cac565b9192600180602092868b0154815501940192016133c3565b509050565b8015610a5e575f190190565b6001600160401b03811161049c5760051b60200190565b634e487b7160e01b5f52603260045260245ffd5b80518210156134615760209160051b010190565b613439565b9060405191825f82549261347984612728565b80845293600181169081156134e2575060011461349e575b506104d1925003836104a1565b90505f9291925260205f20905f915b8183106134c65750509060206104d1928201015f613491565b60209193508060019154838589010152019101909184926134ad565b9050602092506104d194915060ff191682840152151560051b8201015f613491565b600360405160208161351681866126c0565b5f81520301902001541561352d5761060a906130d7565b506004602061354a6103276103276007546001600160a01b031690565b6040516309a69f5760e01b815292839182905afa801561040a5761060a915f91613575575b506127fb565b61358e915060203d602011610403576103f581836104a1565b5f61356f565b906135ba602060405180936135ac83830180976126c0565b9081520380845201826104a1565b51902090565b93959691999798909294986001600160a01b0385165f52600360205260405f20875f5260205260ff60405f205416610900575f99600160f81b6001600160f81b031961361060046108e2896126d2565b16148015613861575b8015613859575b801561384f575b611f7657600460206136476103276103276007546001600160a01b031690565b604051630be428a960e11b815292839182905afa91821561040a5789898f898b61367c976106db975f91613830575b50613e96565b6108885761368f928887879c969c613a04565b6136a261032761136f836107208b61270b565b156136b5576136b090612ce6565b61368f565b9561372a600496986136c961316d86612811565b6136d16104d3565b6001600160a01b038616815291602083015260408201526136f5896107208561270b565b815181546001600160a01b0319166001600160a01b039190911617815590600290604090602081015160018501550151910155565b60206137446103276103276007546001600160a01b031690565b6040516309a69f5760e01b815297889182905afa95861561040a576114dd6137b36107209561379b6107b361085c9a6107ae61060a9d6137bb985f91613811575b50610cbe61379287612829565b620186a0900490565b610cbe6137aa61316d83612811565b91610320900490565b600d546126a6565b60036137c6826126d2565b01548711156137da57612b1c6003916126d2565b60036137e5826126d2565b0154156137f3575b50610845565b6137fe6003916126d2565b016138098154612ce6565b90555f6137ed565b61382a915060203d602011610403576103f581836104a1565b5f613785565b613849915060203d602011610403576103f581836104a1565b5f613676565b50428c1115613627565b508615613620565b5061386e6106db8661305c565b613619565b600160405160208161388581866126c0565b5f81520301902001546138985750600190565b6138ac6020600192604051928380926126c0565b5f8152030190200154624f1a008101809111610a5e57421190565b6104d19061304e6138e59493600160405196879460208601906126c0565b600b60fa1b815201906126c0565b61060a949261391061390a61391693969496613f3d565b93613f3d565b906138c7565b90604051906139266040836104a1565b600d82526c666c757368557365726e616d6560981b6020830152614093565b94909361060a9897936001600160a01b03610160989481809816895216602088015261014060408801525f61014088015260016060880152608087015260a086015260c0850152151560e084015216610100820152816101208201520190611ff8565b939092916001600160a01b036007541691823b156103cf575f946139e9869260405198899788968795632e9621cb60e01b8752873094309060048a01613945565b03925af1801561040a576139fa5750565b5f6104d1916104a1565b93949190916001600160a01b036007541692833b156103cf576139e95f96928793604051998a9889978896632e9621cb60e01b88523094309060048a01613945565b6001600160a01b036007541690813b156103cf5760646001600160a01b03915f8094604051968795869463c898a6e960e01b86521660048501526001602485015260448401525af1801561040a576139fa5750565b61060a949261391061390a613ab293969496613f3d565b9060405190613ac26040836104a1565b600d82526c72656e6577557365726e616d6560981b6020830152614093565b61060a949261391061390a613af893969496613f3d565b9060405190613b086040836104a1565b6013825272666c757368437573746f6d4d6574616461746160681b6020830152614093565b61304e6138e5949360016138e56104d19582604051998a9760208901906126c0565b9161060a9593613b6c613b66613b72949795613f3d565b94613f3d565b91613b2d565b9060405190613b826040836104a1565b6011825270616464437573746f6d4d6574616461746160781b6020830152614093565b91613bcb9194613b6c613bc5613bbf61060a999796613f3d565b95613f3d565b91613f3d565b9060405190613bdb6040836104a1565b600d82526c3bb4ba34323930bba7b33332b960991b6020830152614093565b613c08909492919394613f3d565b9060405190639201de5560e01b825260048201525f8160248173__$35ea76b460e6affb63c860aedde9e1747c$__5af4801561040a5761060a95613c57925f92613c96575b5061391090613f3d565b9060405190613c676040836104a1565b601782527f707265526567697374726174696f6e557365726e616d650000000000000000006020830152614093565b613910919250613caf903d805f833e611fae81836104a1565b9190613c4d565b91613cd09194613b6c613bc5613bbf61060a999796613f3d565b9060405190613ce06040836104a1565b601482527f72656d6f7665437573746f6d4d657461646174610000000000000000000000006020830152614093565b91613d299194613b6c613bc5613bbf61060a999796613f3d565b9060405190613d396040836104a1565b600b82526a30b1b1b2b83a27b33332b960a91b6020830152614093565b8051156134615760200190565b908151811015613461570160200190565b6004815110613e2657613da26106db613d9d613d8f84613d56565b516001600160f81b03191690565b6141f6565b613e0f575f5b8151811015613e0b57613dc96106db613dc4613d8f8486613d63565b614243565b80613df2575b613ddb57600101613da8565b6316c24c5560e31b5f52600360f81b60045260245ffd5b50613e066106db613d9d613d8f8486613d63565b613dcf565b5050565b6316c24c5560e31b5f52600160f91b60045260245ffd5b6316c24c5560e31b5f52600160f81b60045260245ffd5b91613e579194613b6c613bc5613bbf61060a999796613f3d565b9060405190613e676040836104a1565b601482527f726567697374726174696f6e557365726e616d650000000000000000000000006020830152614093565b9161304e61060a979560016138e5613ee19599826138e5613ecf61390a613ec9613ec36138e59e9d613f3d565b9c613f3d565b97613f3d565b95826040519c8d9a60208c01906126c0565b60405190613ef06040836104a1565b600982526836b0b5b2a7b33332b960b91b6020830152614093565b90613f15826104e2565b613f2260405191826104a1565b8281528092613f33601f19916104e2565b0190602036910137565b805f9172184f03e93ff9f4daa797ed6e38ed64bf6a1f0160401b821015614070575b806d04ee2d6d415b85acef8100000000600a921015614054575b662386f26fc1000081101561403f575b6305f5e10081101561402d575b61271081101561401d575b606481101561400e575b1015614003575b613fee6021613fc360018501613f0b565b938401015b5f1901916f181899199a1a9b1b9c1cb0b131b232b360811b600a82061a8353600a900490565b8015613ffe57613fee9091613fc8565b505090565b600190910190613fb2565b60029060649004930192613fab565b6004906127109004930192613fa1565b6008906305f5e1009004930192613f96565b601090662386f26fc100009004930192613f89565b6020906d04ee2d6d415b85acef81000000009004930192613f79565b506040915072184f03e93ff9f4daa797ed6e38ed64bf6a1f0160401b8104613f5f565b9061409e9291613b2d565b6140f06140fe6140ae8351613f3d565b926040519283916140ea60208401967f19457468657265756d205369676e6564204d6573736167653a0a0000000000008852603a8501906126c0565b906126c0565b03601f1981018352826104a1565b51902060418251036141b157815f916020809401519160606040820151910151841a92601b841061419a575b9061416e9161414860ff8616601b811490811561418f575b50614279565b604051948594859094939260ff6060936080840197845216602083015260408201520152565b838052039060015afa1561040a576001600160a01b03805f51921691161490565b601c9150145f614142565b92906141a861416e92614267565b9390915061412a565b60405162461bcd60e51b815260206004820152601860248201527f496e76616c6964207369676e6174757265206c656e67746800000000000000006044820152606490fd5b60ff60f81b16604160f81b8110159081614234575b8115614215575090565b606160f81b811015915081614228575090565b603d60f91b1015905090565b602d60f91b811115915061420b565b60ff60f81b16600360fc1b811015908161425b575090565b603960f81b1015919050565b60ff601b9116019060ff8211610a5e57565b1561428057565b60405162461bcd60e51b815260206004820152601760248201527f496e76616c6964207369676e61747572652076616c75650000000000000000006044820152606490fdfea2646970667358221220257bf5e152221f86ad9b39f6d6890ae300be0f436680e571c4499f557ed0b22e64736f6c634300081a0033","linkReferences":{"src/library/AdvancedStrings.sol":{"AdvancedStrings":[{"start":7839,"length":20},{"start":12049,"length":20},{"start":15573,"length":20}]}}},"methodIdentifiers":{"acceptChangeEvvmAddress()":"48ffba55","acceptOffer(address,string,uint256,uint256,bytes,uint256,uint256,bool,bytes)":"8e3bde43","acceptProposeAdmin()":"eba5e53e","addCustomMetadata(address,string,string,uint256,bytes,uint256,uint256,bool,bytes)":"4cfe021f","cancelChangeEvvmAddress()":"24866f15","cancelProposeAdmin()":"88ecb91f","cancelWithdrawPrincipalTokens()":"cf1dc146","checkIfNameServiceNonceIsAvailable(address,uint256)":"a9e6f37f","claimWithdrawPrincipalTokens()":"e7849f62","flushCustomMetadata(address,string,uint256,bytes,uint256,uint256,bool,bytes)":"3ca44e54","flushUsername(address,string,uint256,bytes,uint256,uint256,bool,bytes)":"044695cb","getAdmin()":"6e9960c3","getAdminFullDetails()":"5548a762","getAmountOfCustomMetadata(string)":"6b5bb1ca","getCustomMetadataMaxSlotsOfIdentity(string)":"7bd9da7a","getEvvmAddress()":"0d1ffe3a","getEvvmAddressFullDetails()":"49166379","getExpireDateOfIdentity(string)":"22afca38","getFullCustomMetadataOfIdentity(string)":"b19517dd","getIdentityBasicMetadata(string)":"c97da33e","getLengthOfOffersUsername(string)":"fe7ab683","getOffersOfUsername(string)":"d7fd3134","getOwnerOfIdentity(string)":"0d3dcb9f","getPriceOfRegistration(string)":"bc91a428","getPriceToAddCustomMetadata()":"36e7a1b8","getPriceToFlushCustomMetadata(string)":"1f4131fb","getPriceToFlushUsername(string)":"54dc585d","getPriceToRemoveCustomMetadata()":"99e7bac2","getProposedWithdrawAmountFullDetails()":"d2234a1a","getSingleCustomMetadataOfIdentity(string,uint256)":"f6d0ecbe","getSingleOfferOfUsername(string,uint256)":"43a82d67","hashUsername(string,uint256)":"bcd5a47c","isUsernameAvailable(string)":"f69c6dec","makeOffer(address,string,uint256,uint256,uint256,bytes,uint256,uint256,bool,bytes)":"d82e5d8b","preRegistrationUsername(address,bytes32,uint256,bytes,uint256,uint256,bool,bytes)":"5d232a55","proposeAdmin(address)":"147bf6c4","proposeChangeEvvmAddress(address)":"a6ba51ca","proposeWithdrawPrincipalTokens(uint256)":"007802df","registrationUsername(address,string,uint256,uint256,bytes,uint256,uint256,bool,bytes)":"afabc8db","removeCustomMetadata(address,string,uint256,uint256,bytes,uint256,uint256,bool,bytes)":"8adf3927","renewUsername(address,string,uint256,bytes,uint256,uint256,bool,bytes)":"35723e23","seePriceToRenew(string)":"75dab53b","strictVerifyIfIdentityExist(string)":"86c8ac58","verifyIfIdentityExists(string)":"7126b2a3","verifyStrictAndGetOwnerOfIdentity(string)":"0c78d2c6","withdrawOffer(address,string,uint256,uint256,bytes,uint256,uint256,bool,bytes)":"5761d8ed"},"id":69}