{"abi":[{"type":"constructor","inputs":[{"name":"initialAdmin","type":"address","internalType":"address"},{"name":"initialGoldenFisher","type":"address","internalType":"address"}],"stateMutability":"nonpayable"},{"type":"function","name":"_setupEstimatorAndEvvm","inputs":[{"name":"_estimator","type":"address","internalType":"address"},{"name":"_evvm","type":"address","internalType":"address"}],"outputs":[],"stateMutability":"nonpayable"},{"type":"function","name":"acceptNewAdmin","inputs":[],"outputs":[],"stateMutability":"nonpayable"},{"type":"function","name":"acceptNewEstimator","inputs":[],"outputs":[],"stateMutability":"nonpayable"},{"type":"function","name":"acceptNewGoldenFisher","inputs":[],"outputs":[],"stateMutability":"nonpayable"},{"type":"function","name":"acceptSetSecondsToUnlockStaking","inputs":[],"outputs":[],"stateMutability":"nonpayable"},{"type":"function","name":"addPresaleStaker","inputs":[{"name":"_staker","type":"address","internalType":"address"}],"outputs":[],"stateMutability":"nonpayable"},{"type":"function","name":"addPresaleStakers","inputs":[{"name":"_stakers","type":"address[]","internalType":"address[]"}],"outputs":[],"stateMutability":"nonpayable"},{"type":"function","name":"cancelChangeAllowPresaleStaking","inputs":[],"outputs":[],"stateMutability":"nonpayable"},{"type":"function","name":"cancelChangeAllowPublicStaking","inputs":[],"outputs":[],"stateMutability":"nonpayable"},{"type":"function","name":"cancelSetSecondsToUnllockFullUnstaking","inputs":[],"outputs":[],"stateMutability":"nonpayable"},{"type":"function","name":"checkIfStakeNonceUsed","inputs":[{"name":"_account","type":"address","internalType":"address"},{"name":"_nonce","type":"uint256","internalType":"uint256"}],"outputs":[{"name":"","type":"bool","internalType":"bool"}],"stateMutability":"view"},{"type":"function","name":"confirmChangeAllowPresaleStaking","inputs":[],"outputs":[],"stateMutability":"nonpayable"},{"type":"function","name":"confirmChangeAllowPublicStaking","inputs":[],"outputs":[],"stateMutability":"nonpayable"},{"type":"function","name":"confirmServiceStaking","inputs":[],"outputs":[],"stateMutability":"nonpayable"},{"type":"function","name":"confirmSetSecondsToUnllockFullUnstaking","inputs":[],"outputs":[],"stateMutability":"nonpayable"},{"type":"function","name":"getAddressHistory","inputs":[{"name":"_account","type":"address","internalType":"address"}],"outputs":[{"name":"","type":"tuple[]","internalType":"struct Staking.HistoryMetadata[]","components":[{"name":"transactionType","type":"bytes32","internalType":"bytes32"},{"name":"amount","type":"uint256","internalType":"uint256"},{"name":"timestamp","type":"uint256","internalType":"uint256"},{"name":"totalStaked","type":"uint256","internalType":"uint256"}]}],"stateMutability":"view"},{"type":"function","name":"getAddressHistoryByIndex","inputs":[{"name":"_account","type":"address","internalType":"address"},{"name":"_index","type":"uint256","internalType":"uint256"}],"outputs":[{"name":"","type":"tuple","internalType":"struct Staking.HistoryMetadata","components":[{"name":"transactionType","type":"bytes32","internalType":"bytes32"},{"name":"amount","type":"uint256","internalType":"uint256"},{"name":"timestamp","type":"uint256","internalType":"uint256"},{"name":"totalStaked","type":"uint256","internalType":"uint256"}]}],"stateMutability":"view"},{"type":"function","name":"getAllDataOfAllowPublicStaking","inputs":[],"outputs":[{"name":"","type":"tuple","internalType":"struct Staking.BoolTypeProposal","components":[{"name":"flag","type":"bool","internalType":"bool"},{"name":"timeToAccept","type":"uint256","internalType":"uint256"}]}],"stateMutability":"view"},{"type":"function","name":"getAllowPresaleStaking","inputs":[],"outputs":[{"name":"","type":"tuple","internalType":"struct Staking.BoolTypeProposal","components":[{"name":"flag","type":"bool","internalType":"bool"},{"name":"timeToAccept","type":"uint256","internalType":"uint256"}]}],"stateMutability":"view"},{"type":"function","name":"getEstimatorAddress","inputs":[],"outputs":[{"name":"","type":"address","internalType":"address"}],"stateMutability":"view"},{"type":"function","name":"getEstimatorProposal","inputs":[],"outputs":[{"name":"","type":"address","internalType":"address"}],"stateMutability":"view"},{"type":"function","name":"getEvvmAddress","inputs":[],"outputs":[{"name":"","type":"address","internalType":"address"}],"stateMutability":"view"},{"type":"function","name":"getGoldenFisher","inputs":[],"outputs":[{"name":"","type":"address","internalType":"address"}],"stateMutability":"view"},{"type":"function","name":"getGoldenFisherProposal","inputs":[],"outputs":[{"name":"","type":"address","internalType":"address"}],"stateMutability":"view"},{"type":"function","name":"getMateAddress","inputs":[],"outputs":[{"name":"","type":"address","internalType":"address"}],"stateMutability":"pure"},{"type":"function","name":"getOwner","inputs":[],"outputs":[{"name":"","type":"address","internalType":"address"}],"stateMutability":"view"},{"type":"function","name":"getPresaleStaker","inputs":[{"name":"_account","type":"address","internalType":"address"}],"outputs":[{"name":"","type":"bool","internalType":"bool"},{"name":"","type":"uint256","internalType":"uint256"}],"stateMutability":"view"},{"type":"function","name":"getPresaleStakerCount","inputs":[],"outputs":[{"name":"","type":"uint256","internalType":"uint256"}],"stateMutability":"view"},{"type":"function","name":"getSecondsToUnlockFullUnstaking","inputs":[],"outputs":[{"name":"","type":"uint256","internalType":"uint256"}],"stateMutability":"view"},{"type":"function","name":"getSecondsToUnlockStaking","inputs":[],"outputs":[{"name":"","type":"uint256","internalType":"uint256"}],"stateMutability":"view"},{"type":"function","name":"getSizeOfAddressHistory","inputs":[{"name":"_account","type":"address","internalType":"address"}],"outputs":[{"name":"","type":"uint256","internalType":"uint256"}],"stateMutability":"view"},{"type":"function","name":"getTimeToUserUnlockFullUnstakingTime","inputs":[{"name":"_account","type":"address","internalType":"address"}],"outputs":[{"name":"","type":"uint256","internalType":"uint256"}],"stateMutability":"view"},{"type":"function","name":"getTimeToUserUnlockStakingTime","inputs":[{"name":"_account","type":"address","internalType":"address"}],"outputs":[{"name":"","type":"uint256","internalType":"uint256"}],"stateMutability":"view"},{"type":"function","name":"getUserAmountStaked","inputs":[{"name":"_account","type":"address","internalType":"address"}],"outputs":[{"name":"","type":"uint256","internalType":"uint256"}],"stateMutability":"view"},{"type":"function","name":"gimmeYiel","inputs":[{"name":"user","type":"address","internalType":"address"}],"outputs":[{"name":"epochAnswer","type":"bytes32","internalType":"bytes32"},{"name":"tokenToBeRewarded","type":"address","internalType":"address"},{"name":"amountTotalToBeRewarded","type":"uint256","internalType":"uint256"},{"name":"idToOverwriteUserHistory","type":"uint256","internalType":"uint256"},{"name":"timestampToBeOverwritten","type":"uint256","internalType":"uint256"}],"stateMutability":"nonpayable"},{"type":"function","name":"goldenStaking","inputs":[{"name":"isStaking","type":"bool","internalType":"bool"},{"name":"amountOfStaking","type":"uint256","internalType":"uint256"},{"name":"signature_EVVM","type":"bytes","internalType":"bytes"}],"outputs":[],"stateMutability":"nonpayable"},{"type":"function","name":"prepareChangeAllowPresaleStaking","inputs":[],"outputs":[],"stateMutability":"nonpayable"},{"type":"function","name":"prepareChangeAllowPublicStaking","inputs":[],"outputs":[],"stateMutability":"nonpayable"},{"type":"function","name":"prepareServiceStaking","inputs":[{"name":"amountOfStaking","type":"uint256","internalType":"uint256"}],"outputs":[],"stateMutability":"nonpayable"},{"type":"function","name":"prepareSetSecondsToUnllockFullUnstaking","inputs":[{"name":"_secondsToUnllockFullUnstaking","type":"uint256","internalType":"uint256"}],"outputs":[],"stateMutability":"nonpayable"},{"type":"function","name":"presaleStaking","inputs":[{"name":"user","type":"address","internalType":"address"},{"name":"isStaking","type":"bool","internalType":"bool"},{"name":"nonce","type":"uint256","internalType":"uint256"},{"name":"signature","type":"bytes","internalType":"bytes"},{"name":"priorityFee_EVVM","type":"uint256","internalType":"uint256"},{"name":"nonce_EVVM","type":"uint256","internalType":"uint256"},{"name":"priorityFlag_EVVM","type":"bool","internalType":"bool"},{"name":"signature_EVVM","type":"bytes","internalType":"bytes"}],"outputs":[],"stateMutability":"nonpayable"},{"type":"function","name":"priceOfStaking","inputs":[],"outputs":[{"name":"","type":"uint256","internalType":"uint256"}],"stateMutability":"pure"},{"type":"function","name":"proposeAdmin","inputs":[{"name":"_newAdmin","type":"address","internalType":"address"}],"outputs":[],"stateMutability":"nonpayable"},{"type":"function","name":"proposeEstimator","inputs":[{"name":"_estimator","type":"address","internalType":"address"}],"outputs":[],"stateMutability":"nonpayable"},{"type":"function","name":"proposeGoldenFisher","inputs":[{"name":"_goldenFisher","type":"address","internalType":"address"}],"outputs":[],"stateMutability":"nonpayable"},{"type":"function","name":"proposeSetSecondsToUnlockStaking","inputs":[{"name":"_secondsToUnlockStaking","type":"uint256","internalType":"uint256"}],"outputs":[],"stateMutability":"nonpayable"},{"type":"function","name":"publicStaking","inputs":[{"name":"user","type":"address","internalType":"address"},{"name":"isStaking","type":"bool","internalType":"bool"},{"name":"amountOfStaking","type":"uint256","internalType":"uint256"},{"name":"nonce","type":"uint256","internalType":"uint256"},{"name":"signature","type":"bytes","internalType":"bytes"},{"name":"priorityFee_EVVM","type":"uint256","internalType":"uint256"},{"name":"nonce_EVVM","type":"uint256","internalType":"uint256"},{"name":"priorityFlag_EVVM","type":"bool","internalType":"bool"},{"name":"signature_EVVM","type":"bytes","internalType":"bytes"}],"outputs":[],"stateMutability":"nonpayable"},{"type":"function","name":"rejectProposalAdmin","inputs":[],"outputs":[],"stateMutability":"nonpayable"},{"type":"function","name":"rejectProposalEstimator","inputs":[],"outputs":[],"stateMutability":"nonpayable"},{"type":"function","name":"rejectProposalGoldenFisher","inputs":[],"outputs":[],"stateMutability":"nonpayable"},{"type":"function","name":"rejectProposalSetSecondsToUnlockStaking","inputs":[],"outputs":[],"stateMutability":"nonpayable"},{"type":"function","name":"serviceUnstaking","inputs":[{"name":"amountOfStaking","type":"uint256","internalType":"uint256"}],"outputs":[],"stateMutability":"nonpayable"},{"type":"error","name":"AddressIsNotAService","inputs":[]},{"type":"error","name":"AddressMismatch","inputs":[]},{"type":"error","name":"AddressMustWaitToFullUnstake","inputs":[]},{"type":"error","name":"AddressMustWaitToStakeAgain","inputs":[]},{"type":"error","name":"InvalidSignatureOnStaking","inputs":[]},{"type":"error","name":"PresaleStakingDisabled","inputs":[]},{"type":"error","name":"SenderIsNotAdmin","inputs":[]},{"type":"error","name":"SenderIsNotGoldenFisher","inputs":[]},{"type":"error","name":"ServiceDoesNotFulfillCorrectStakingAmount","inputs":[{"name":"requiredAmount","type":"uint256","internalType":"uint256"}]},{"type":"error","name":"ServiceDoesNotStakeInSameTx","inputs":[]},{"type":"error","name":"StakingNonceAlreadyUsed","inputs":[]},{"type":"error","name":"UserIsNotPresaleStaker","inputs":[]},{"type":"error","name":"UserPresaleStakerLimitExceeded","inputs":[]}],"bytecode":{"object":"0x60803460ba57601f61354f38819003918201601f19168301916001600160401b0383118484101760be57808492604094855283398101031260ba57604b602060458360d2565b920160d2565b9060018060a01b031660018060a01b0319600254161760025560018060a01b031660018060a01b03196005541617600555600160ff19601354161760135560ff19601154166011555f600b55621baf80600e55600160ff19601a541617601a5560405161346990816100e68239f35b5f80fd5b634e487b7160e01b5f52604160045260245ffd5b51906001600160a01b038216820360ba5756fe60806040526004361015610011575f80fd5b5f3560e01c80630d1ffe3a14610354578063147bf6c41461034f5780631e9c210f1461034a57806327be05571461034557806334dd90d6146103405780633900738a1461033b5780633d8ff69a14610336578063475c31ff14610331578063489c5ad41461032c578063602c4fb414610327578063610a0476146103225780636254300b1461031d57806366d161aa14610318578063681f02ac146103135780636b2933a21461030e5780636c58f77b146103095780636fa7ff17146103045780637068dc65146102ff5780637c25faef146102fa5780637f8da591146102f5578063829c67d4146102f0578063893d20e8146102eb5780638f4b3f28146102e65780639053a258146102e157806396ae4e45146102dc57806399b4c3ef146102d75780639cde1d3e146102d25780639e411233146102cd578063a06831ba146102c8578063a84e9f23146102c3578063b384c574146102be578063b38c950a146102b9578063b996b6c4146102b4578063be100345146102af578063c0f6e7d1146102aa578063c130a719146102a5578063c769095c146102a0578063c9d2beb11461029b578063cb0900b814610296578063cd6b546014610291578063d30f6d991461028c578063d5bbacd514610287578063dfa3340314610282578063dfb2b3a41461027d578063e6cbd0a614610278578063e6f2ebe414610273578063e7dc07561461026e578063eb57af4a14610269578063f5c1af1c14610264578063fa6215f31461025f578063fabd08e81461025a5763fc2feab214610255575f80fd5b611ab6565b611a1c565b61199e565b611981565b611932565b6118dc565b6118bf565b611899565b611865565b6117e8565b6117c6565b611770565b611719565b6116f5565b611563565b6114d6565b611482565b6113f6565b611399565b611371565b611339565b61130c565b6112d4565b61129c565b611275565b61124b565b611119565b6110fe565b611089565b61101d565b610ff7565b610d23565b610cfd565b610cd0565b610ca8565b610c52565b610be9565b610bae565b610b4d565b610b27565b610b01565b610ac4565b610830565b6107d3565b6106ac565b610556565b6104f9565b6104a3565b61046f565b61040e565b61039d565b610367565b5f91031261036357565b5f80fd5b34610363575f3660031901126103635760206001600160a01b035f5416604051908152f35b6001600160a01b0381160361036357565b34610363576020366003190112610363576004356103ba8161038c565b6001600160a01b036002541633036103ff576001600160a01b03166001600160601b0360a01b60035416176003556201518042018042116103fa57600455005b611af2565b636587b01b60e11b5f5260045ffd5b34610363575f366003190112610363576001600160a01b036002541633036103ff5760125442106103635761046960ff60115416155f6020604051610452816105be565b838152015260ff8019601154169115151617601155565b5f601255005b34610363575f366003190112610363576001600160a01b036002541633036103ff576201518042018042116103fa57601455005b34610363575f366003190112610363576001600160a01b036002541633036103ff5760075442106103635760068054600580546001600160a01b03199081166001600160a01b038416179091551690555f600755005b34610363576020366003190112610363576004356105168161038c565b6001600160a01b036002541633036103ff576001600160a01b03166001600160601b0360a01b60095416176009556201518042018042116103fa57600a55005b34610363576020366003190112610363576004356001600160a01b036002541633036103ff57600f556201518042018042116103fa57601055005b8015150361036357565b60e435906105a882610591565b565b634e487b7160e01b5f52604160045260245ffd5b6040810190811067ffffffffffffffff8211176105da57604052565b6105aa565b6080810190811067ffffffffffffffff8211176105da57604052565b90601f8019910116810190811067ffffffffffffffff8211176105da57604052565b604051906105a86040836105fb565b604051906105a860a0836105fb565b604051906105a86080836105fb565b67ffffffffffffffff81116105da57601f01601f191660200190565b81601f820112156103635780359061067d8261064a565b9261068b60405194856105fb565b8284526020838301011161036357815f926020809301838601378301015290565b34610363576060366003190112610363576004356106c981610591565b60243560443567ffffffffffffffff8111610363576106ec903690600401610666565b906106ff6005546001600160a01b031690565b906001600160a01b03821633036107c45761072a61071b61061d565b6001600160a01b039093168352565b5f60208301526107536107476107475f546001600160a01b031690565b6001600160a01b031690565b604051630d9a602960e31b81523360048201529490602090869060249082905afa9283156107bf5761078c955f9461078e575b50612125565b005b6107b191945060203d6020116107b8575b6107a981836105fb565b810190611b13565b925f610786565b503d61079f565b611b22565b630d9974d560e11b5f5260045ffd5b34610363576020366003190112610363576004356107f08161038c565b6001600160a01b036002541633036103ff576001600160a01b03166001600160601b0360a01b60065416176006556201518042018042116103fa57600755005b346103635760203660031901126103635760043561084d8161038c565b5f805f805f9161086e866001600160a01b03165f52601d60205260405f2090565b546108ac575b604080519485526001600160a01b03959095166020850152938301939093526060820192909252608081019190915260a090f35b0390f35b50505050506108c96107476107476008546001600160a01b031690565b60405163f702720760e01b81526001600160a01b0383166004820152919060a090839060249082905f905af180156107bf575f925f925f925f925f91610a87575b5080928092858798809882610928575b505050505050849392610874565b928261095e9261093f60029795846109a098612cf1565b6109638561095e856001600160a01b03165f52601d60205260405f2090565b611b88565b505560016109868561095e856001600160a01b03165f52601d60205260405f2090565b5001556001600160a01b03165f52601d60205260405f2090565b5001556109ba6107476107475f546001600160a01b031690565b604051630a1ad2d160e21b8152336004820152909390602081602481885afa9081156107bf575f91610a58575b506109f8575b92808080808061091a565b6020600494604051958680926309a69f5760e01b82525afa80156107bf57610a2e610a34916108a8965f91610a39575b50611bb9565b33612c93565b6109ed565b610a52915060203d6020116107b8576107a981836105fb565b5f610a28565b610a7a915060203d602011610a80575b610a7281836105fb565b810190611ba1565b5f6109e7565b503d610a68565b935050935050610aaf915060a03d60a011610abd575b610aa781836105fb565b810190611b2d565b91939490929392915f61090a565b503d610a9d565b34610363575f366003190112610363576001600160a01b036002541633036103ff57600d54421061036357600c54600b555f600c555f600d555f80f35b34610363575f3660031901126103635760206001600160a01b0360065416604051908152f35b34610363575f3660031901126103635760206001600160a01b0360085416604051908152f35b34610363575f366003190112610363576001600160a01b036002541633036103ff57601454421061036357610ba860ff60135416155f6020604051610b91816105be565b838152015260ff8019601354169115151617601355565b5f601455005b34610363576020366003190112610363576004356001600160a01b036002541633036103ff57600c556201518042018042116103fa57600d55005b3461036357602036600319011261036357600435610c068161038c565b6001600160a01b036002541633036103ff5761032060015411610363576001600160a01b03165f52601c60205260405f20600160ff19825416179055610c4d600154611c03565b600155005b34610363575f366003190112610363576001600160a01b036002541633036103ff57600a5442106103635760098054600880546001600160a01b03199081166001600160a01b038416179091551690555f600a55005b34610363575f366003190112610363576001600160a01b036002541633036103ff575f601255005b34610363575f366003190112610363576001600160a01b036002541633036103ff575f600c819055600d55005b34610363575f3660031901126103635760206001600160a01b0360055416604051908152f35b3461036357602036600319011261036357600435333b15610fe857604051610d4a816105be565b338152600160208201526020915f604051610d6585826105fb565b52610d7f610d7a83516001600160a01b031690565b611c72565b8114610f25575b80610de9610e42926003610de1610dbe610da788516001600160a01b031690565b6001600160a01b03165f52601d60205260405f2090565b610ddb610dd5610da78a516001600160a01b031690565b54611c57565b90611b88565b500154611c65565b610e0c610dfd85516001600160a01b031690565b610e0684611bca565b90612c93565b610e20610da785516001600160a01b031690565b90610e2961063b565b92600284528684015242604084015260608301526120c5565b610e596107476107475f546001600160a01b031690565b604051630a1ad2d160e21b81523360048201529091908381602481865afa9182156107bf5784915f93610f06575b5082610ef1575b5050610e9657005b81600491604051928380926309a69f5760e01b82525afa9081156107bf57610ecf610a2e925f9261078c958492610ed4575b5050611bed565b611b06565b610eea9250803d106107b8576107a981836105fb565b5f80610ec8565b0151159050610eff565b1590565b825f610e8e565b610f1e919350823d8411610a8057610a7281836105fb565b915f610e87565b610f3e610f3983516001600160a01b031690565b61200d565b4210610fd957610f5b6107476107475f546001600160a01b031690565b90610f6d83516001600160a01b031690565b91803b156103635760405163adb6233f60e01b81526001600160a01b039390931660048401525f60248401819052908390604490829084905af19182156107bf57610e4292610fbf575b509050610d86565b80610fcd5f610fd3936105fb565b80610359565b5f610fb7565b636b0ed46d60e01b5f5260045ffd5b634a340e9d60e01b5f5260045ffd5b34610363575f3660031901126103635760206001600160a01b0360025416604051908152f35b34610363575f366003190112610363576001600160a01b036002541633036103ff57601054421061036357600f54600e555f600f555f6010555f80f35b6105a8909291926080810193606080918051845260208101516020850152604081015160408501520151910152565b34610363576040366003190112610363576108a86110f26110ec6004356110af8161038c565b6001600160a01b03602435915f60606040516110ca816105df565b8281528260208201528260408201520152165f52601d60205260405f20611b88565b50611c25565b6040519182918261105a565b34610363575f36600319011261036357602060405160018152f35b3461036357602036600319011261036357600435333b15610fe85761114b6107476107475f546001600160a01b031690565b60405163d4fac45d60e01b815233600482015260016024820152909190602081604481865afa9081156107bf575f9161122c575b5060405163d4fac45d60e01b81523060048201526001602482015292602090849060449082905afa9081156107bf5761078c935f9261120b575b506111c261062c565b33808252426020830181905260408301869052606083018490526080909201849052601580546001600160a01b0319169091179055601655601792909255601891909155601955565b61122591925060203d6020116107b8576107a981836105fb565b905f6111b9565b611245915060203d6020116107b8576107a981836105fb565b5f61117f565b3461036357602036600319011261036357602061126d600435610d7a8161038c565b604051908152f35b3461036357602036600319011261036357602061126d6004356112978161038c565b611cbd565b34610363575f366003190112610363576001600160a01b036002541633036103ff57600980546001600160a01b03191690555f600a55005b34610363575f366003190112610363576001600160a01b036002541633036103ff57600680546001600160a01b03191690555f600755005b34610363575f366003190112610363576001600160a01b036002541633036103ff575f600f819055601055005b34610363575f366003190112610363576001600160a01b036002541633036103ff57600380546001600160a01b03191690555f600455005b34610363575f366003190112610363576001600160a01b036002541633036103ff575f601455005b346103635760203660031901126103635760043567ffffffffffffffff8111610363573660238201121561036357806004013567ffffffffffffffff8111610363573660248260051b8401011161036357602461078c9201611d3f565b3461036357610100366003190112610363576004356114148161038c565b6024359061142182610591565b60443560643567ffffffffffffffff811161036357611444903690600401610666565b60843560a4359160c4359361145885610591565b60e4359667ffffffffffffffff88116103635761147c61078c983690600401610666565b96611db6565b346103635760203660031901126103635760406001600160a01b036004356114a98161038c565b16805f52601c60205260ff825f205416905f52601c6020526001825f200154825191151582526020820152f35b3461036357610120366003190112610363576004356114f48161038c565b6024359061150182610591565b60443560643560843567ffffffffffffffff811161036357611527903690600401610666565b60a4359060c4359261153761059b565b94610104359767ffffffffffffffff89116103635761155d61078c993690600401610666565b97611f06565b34610363575f36600319011261036357333b15610fe85760175461158681611bca565b61159d6107476107475f546001600160a01b031690565b60405163d4fac45d60e01b815233600482015260016024820152602081604481855afa9081156107bf575f916116d6575b5060405163d4fac45d60e01b81523060048201526001602482015291602090839060449082905afa9182156107bf575f926116b5575b5061161183601854611c65565b1415908161169f575b5061168d5750601654420361167e57336001600160a01b036116446015546001600160a01b031690565b160361166f5761078c9061165661061d565b3381529060016020830152611669611c11565b916124a5565b634cd87fb560e01b5f5260045ffd5b635ac7600960e11b5f5260045ffd5b630387e0bb60e21b5f5260045260245ffd5b90506116ad82601954611b06565b14155f61161a565b6116cf91925060203d6020116107b8576107a981836105fb565b905f611604565b6116ef915060203d6020116107b8576107a981836105fb565b5f6115ce565b34610363575f3660031901126103635760206040516901138ccba11c9e8c00008152f35b34610363575f366003190112610363576003546001600160a01b038116803314801590611765575b61036357600280546001600160a01b0319908116929092179055166003555f600455005b506004544210611741565b34610363575f36600319011261036357611788611fe9565b506108a8604051611798816105be565b60135460ff161515808252601454602092830190815260408051928352905192820192909252918291820190565b3461036357602036600319011261036357602061126d600435610f398161038c565b34610363576040366003190112610363576004356118058161038c565b602435906118128261038c565b601a549160f883901b6001600160f81b03191615610363576001600160a01b038092166001600160601b0360a01b6008541617600855166001600160601b0360a01b5f5416175f5560ff1916601a555f80f35b34610363575f366003190112610363576001600160a01b036002541633036103ff576201518042018042116103fa57601255005b34610363575f3660031901126103635760206001600160a01b0360095416604051908152f35b34610363575f366003190112610363576020600b54604051908152f35b34610363575f366003190112610363576118f4611fe9565b506108a8604051611904816105be565b60115460ff161515808252601254602092830190815260408051928352905192820192909252918291820190565b346103635760403660031901126103635760043561194f8161038c565b6001600160a01b0360243591165f52601b60205260405f20905f52602052602060ff60405f2054166040519015158152f35b34610363575f366003190112610363576020600e54604051908152f35b34610363575f366003190112610363576020600154604051908152f35b60206040818301928281528451809452019201905f5b8181106119de5750505090565b9091926020608082611a116001948851606080918051845260208101516020850152604081015160408501520151910152565b0194019291016119d1565b34610363576020366003190112610363576001600160a01b03600435611a418161038c565b165f52601d60205260405f20805467ffffffffffffffff81116105da5760405191611a7260208360051b01846105fb565b81835260208301905f5260205f205f915b838310611a9857604051806108a887826119bb565b60046020600192611aa885611c25565b815201920192019190611a83565b34610363576020366003190112610363576001600160a01b03600435611adb8161038c565b165f52601d602052602060405f2054604051908152f35b634e487b7160e01b5f52601160045260245ffd5b919082018092116103fa57565b90816020910312610363575190565b6040513d5f823e3d90fd5b908160a0910312610363578051916020820151611b498161038c565b916040810151916080606083015192015190565b634e487b7160e01b5f52603260045260245ffd5b805415611b83575f5260205f20905f90565b611b5d565b8054821015611b83575f5260205f209060021b01905f90565b908160209103126103635751611bb681610591565b90565b90811560018380041417156103fa57565b90816901138ccba11c9e8c000002916901138ccba11c9e8c00008304036103fa57565b908160011b91808304600214901517156103fa57565b5f1981146103fa5760010190565b60405190611c206020836105fb565b5f8252565b90604051611c32816105df565b6060600382948054845260018101546020850152600281015460408501520154910152565b5f198101919082116103fa57565b919082039182116103fa57565b6001600160a01b0316805f52601d60205260405f2054908115611cb7575f52601d60205260405f205f1982019182116103fa57600391611cb191611b88565b50015490565b50505f90565b6001600160a01b03811690815f52601d60205260405f2054918215611d38575f52601d6020526003611cf560405f20610ddb85611c57565b500154611cb757600291610ddb611d20611d26936001600160a01b03165f52601d60205260405f2090565b91611c57565b500154600b5481018091116103fa5790565b5050505f90565b916001600160a01b036002541633036103ff575f5b82811015611db05761032060015411610363576001906001600160a01b038160051b860135611d828161038c565b165f52601c60205260405f208260ff19825416179055611daa611da58354611c03565b600155565b01611d54565b50915050565b926004909791929596976020611dd96107476107475f546001600160a01b031690565b604051630be428a960e11b815293849182905afa9081156107bf57878587610efb94611e0c965f91611ee7575b50612db8565b611ed857611e46611e3f86611e32866001600160a01b03165f52601b60205260405f2090565b905f5260205260405f2090565b5460ff1690565b611ec957611e548383612ece565b611e63610efb60115460ff1690565b611eba576105a896611ead96611e3295611e9694611e7f61061d565b6001600160a01b03881681525f6020820152612677565b6001600160a01b03165f52601b60205260405f2090565b805460ff19166001179055565b63098e23b360e41b5f5260045ffd5b63eb59cbbd60e01b5f5260045ffd5b631aeb816b60e01b5f5260045ffd5b611f00915060203d6020116107b8576107a981836105fb565b5f611e06565b939791949690929597611f1e610efb60135460ff1690565b6103635760046020611f3d6107476107475f546001600160a01b031690565b604051630be428a960e11b815292839182905afa9182156107bf5788888789611f7196610efb965f91611fca575b50612e4a565b611ed857611f97611e3f87611e32876001600160a01b03165f52601b60205260405f2090565b611ec9576105a897611ead97611e3296611e9695611fb361061d565b6001600160a01b03891681525f6020820152612a01565b611fe3915060203d6020116107b8576107a981836105fb565b5f611f6b565b60405190611ff6826105be565b5f6020838281520152565b80156103fa575f190190565b6001600160a01b0381165f52601d60205260405f2054805b61205e5750600261205261204d611bb6936001600160a01b03165f52601d60205260405f2090565b611b71565b500154600e5490611b06565b600361208761207e846001600160a01b03165f52601d60205260405f2090565b610ddb84611c57565b5001541561209e5761209890612001565b80612025565b612052600291610ddb611d20611bb6956001600160a01b03165f52601d60205260405f2090565b8054680100000000000000008110156105da576120e791600182018155611b88565b9190916121125760608160039251845560208101516001850155604081015160028501550151910155565b634e487b7160e01b5f525f60045260245ffd5b9390929083156123a15761214361129786516001600160a01b031690565b421061239257612159610efb6020870151151590565b612365575b50506121776107476107475f546001600160a01b031690565b9161218984516001600160a01b031690565b92803b156103635760405163adb6233f60e01b81526001600160a01b03949094166004850152600160f81b60248501525f908490604490829084905af19283156107bf5761223093612351575b506121eb610da785516001600160a01b031690565b5461231057815b612206610da786516001600160a01b031690565b9115612308576001925b61221861063b565b938452602084015242604084015260608301526120c5565b6122476107476107475f546001600160a01b031690565b604051630a1ad2d160e21b81523360048201529091602082602481865afa9182156107bf575f926122e7575b50816122d9575b506122825750565b6020600491604051928380926309a69f5760e01b82525afa9081156107bf575f610ecf6105a893610a2e9383916122ba575b50611bed565b6122d3915060203d6020116107b8576107a981836105fb565b5f6122b4565b602001511590505b5f61227a565b61230191925060203d602011610a8057610a7281836105fb565b905f612273565b600292612210565b61234c82600361234461232d610da789516001600160a01b031690565b610ddb610dd5610da78b516001600160a01b031690565b500154611b06565b6121f2565b80610fcd5f61235f936105fb565b5f6121d6565b61238b915f8061237c88516001600160a01b031690565b61238587611bca565b906130a8565b5f8061215e565b632df062b560e21b5f5260045ffd5b50506123b7610d7a84516001600160a01b031690565b81146123fc575b612230916123df826003610de161232d610da789516001600160a01b031690565b61234c6123f386516001600160a01b031690565b610e0685611bca565b612410610f3984516001600160a01b031690565b4210610fd95761242d6107476107475f546001600160a01b031690565b9161243f84516001600160a01b031690565b92803b156103635760405163adb6233f60e01b81526001600160a01b039490941660048501525f60248501819052908490604490829084905af19283156107bf5761223093612491575b5091506123be565b80610fcd5f61249f936105fb565b5f612489565b906124ba61129783516001600160a01b031690565b42106123925760208201926124d2610efb8551151590565b612659575b506124ef6107476107475f546001600160a01b031690565b9161250181516001600160a01b031690565b92803b156103635760405163adb6233f60e01b81526001600160a01b03949094166004850152600160f81b60248501525f908490604490829084905af19283156107bf576125a193612645575b50612563610da782516001600160a01b031690565b5461261c5761257e610da783925b516001600160a01b031690565b9061258761063b565b9260018452602084015242604084015260608301526120c5565b6125b86107476107475f546001600160a01b031690565b604051630a1ad2d160e21b81523360048201529091602082602481865afa9182156107bf575f926125fb575b50816125f257506122825750565b511590506122e1565b61261591925060203d602011610a8057610a7281836105fb565b905f6125e4565b61257e610da761263f846003612344610dbe610da788516001600160a01b031690565b92612571565b80610fcd5f612653936105fb565b5f61254e565b612671905f808061237c87516001600160a01b031690565b5f6124d7565b949092939193835f146128a95761269861129787516001600160a01b031690565b4210612392576126ae610efb6020880151151590565b612881575b5050506126cd6107476107475f546001600160a01b031690565b906126df84516001600160a01b031690565b91803b156103635760405163adb6233f60e01b81526001600160a01b03939093166004840152600160f81b60248401525f908390604490829084905af19182156107bf5761278b9261286d575b50612741610da785516001600160a01b031690565b5461284a5760015b905b61275f610da786516001600160a01b031690565b9015612842576001915b61277161063b565b9283526001602084015242604084015260608301526120c5565b6127a26107476107475f546001600160a01b031690565b604051630a1ad2d160e21b81523360048201529092602082602481875afa9182156107bf575f92612821575b5081612814575b506127de575050565b6020600492604051938480926309a69f5760e01b82525afa9081156107bf57610ecf610a2e926105a8945f916122ba5750611bed565b602001511590505f6127d5565b61283b91925060203d602011610a8057610a7281836105fb565b905f6127ce565b600291612769565b6128686001600361234461232d610da789516001600160a01b031690565b612749565b80610fcd5f61287b936105fb565b5f61272c565b6128a1928561289788516001600160a01b031690565b6123856001611bca565b5f80806126b3565b9291906128c0610d7a87516001600160a01b031690565b600114612958575b61278b9385151580612942575b61291f575b5050506128fb60016003610de161232d610da789516001600160a01b031690565b9061291a61291086516001600160a01b031690565b610e066001611bca565b61274b565b61293a928661293589516001600160a01b031690565b613054565b5f80806128da565b50612953610efb6020890151151590565b6128d5565b61296c610f3987516001600160a01b031690565b4210610fd9576129896107476107475f546001600160a01b031690565b9361299b87516001600160a01b031690565b94803b156103635760405163adb6233f60e01b81526001600160a01b039690961660048701525f60248701819052908690604490829084905af19485156107bf5761278b956129ed575b5093506128c8565b80610fcd5f6129fb936105fb565b5f6129e5565b95909394919294845f14612b5257612a2361129788516001600160a01b031690565b421061239257612a39610efb6020890151151590565b612b34575b505050612a586107476107475f546001600160a01b031690565b91612a6a85516001600160a01b031690565b92803b156103635760405163adb6233f60e01b81526001600160a01b03949094166004850152600160f81b60248501525f908490604490829084905af19283156107bf5761278b93612b20575b50612acc610da786516001600160a01b031690565b54612ae757815b612206610da787516001600160a01b031690565b612b1b826003612344612b04610da78a516001600160a01b031690565b610ddb610dd5610da78c516001600160a01b031690565b612ad3565b80610fcd5f612b2e936105fb565b5f612ab7565b612b4a928661237c89516001600160a01b031690565b5f8080612a3e565b939190612b69610d7a88516001600160a01b031690565b8414612bea575b61278b9486151580612bd4575b612bb6575b505050612ba2826003610de1612b04610da78a516001600160a01b031690565b612b1b6123f387516001600160a01b031690565b612bcc92876129358a516001600160a01b031690565b5f8080612b82565b50612be5610efb60208a0151151590565b612b7d565b612bfe610f3988516001600160a01b031690565b4210610fd957612c1b6107476107475f546001600160a01b031690565b94612c2d88516001600160a01b031690565b95803b156103635760405163adb6233f60e01b81526001600160a01b039790971660048801525f60248801819052908790604490829084905af19586156107bf5761278b96612c7f575b509450612b70565b80610fcd5f612c8d936105fb565b5f612c77565b6001600160a01b035f541690813b156103635760646001600160a01b03915f8094604051968795869463c898a6e960e01b86521660048501526001602485015260448401525af180156107bf57612ce75750565b5f6105a8916105fb565b916001600160a01b035f5416803b15610363575f92836064926001600160a01b039485604051988997889663c898a6e960e01b885216600487015216602485015260448401525af180156107bf57612ce75750565b60405190612d556040836105fb565b60048252637472756560e01b6020830152565b805191908290602001825e015f815290565b612daa612d9c94936001612d9c6105a89582604051998a976020890190612d68565b600b60fa1b81520190612d68565b03601f1981018452836105fb565b91612e20612dcc611bb6969495939561311c565b926040805193612ddc82866105fb565b600e85526d70726573616c655374616b696e6760901b602086015215612e265750612e05612d46565b905b612e1a612e14600161311c565b9161311c565b91612d7a565b91613272565b612e32815191826105fb565b600581526466616c736560d81b602082015290612e07565b611bb69593612e5f612e20929694939661311c565b936040805194612e6f82876105fb565b600d86526c7075626c69635374616b696e6760981b602087015215612ea35750612e1a612e14612e9d612d46565b9361311c565b612e14612e1a91612eb6815191826105fb565b600581526466616c736560d81b60208201529361311c565b60135460ff1615612ee85763098e23b360e41b5f5260045ffd5b612f06611e3f836001600160a01b03165f52601c60205260405f2090565b15612fbe5715612f725760026001612f2f836001600160a01b03165f52601c60205260405f2090565b01541015612f6357612f546001916001600160a01b03165f52601c60205260405f2090565b01612f5f8154611c03565b9055565b636b3af2e560e01b5f5260045ffd5b6001612f8f826001600160a01b03165f52601c60205260405f2090565b015415612f6357612fb36001916001600160a01b03165f52601c60205260405f2090565b01612f5f8154612001565b63f706524f60e01b5f5260045ffd5b805180835260209291819084018484015e5f828201840152601f01601f1916010190565b949093611bb69897936001600160a01b03610160989481809816895216602088015261014060408801525f61014088015260016060880152608087015260a086015260c0850152151560e084015216610100820152816101208201520190612fcd565b93909291936001600160a01b035f541691823b15610363575f946130978693928493604051998a9889978896632e9621cb60e01b88523094309060048a01612ff1565b03925af180156107bf57612ce75750565b9392949190916001600160a01b035f541692833b15610363576130975f96928793604051998a9889978896632e9621cb60e01b88523094309060048a01612ff1565b906130f48261064a565b61310160405191826105fb565b8281528092613112601f199161064a565b0190602036910137565b805f9172184f03e93ff9f4daa797ed6e38ed64bf6a1f0160401b82101561324f575b806d04ee2d6d415b85acef8100000000600a921015613233575b662386f26fc1000081101561321e575b6305f5e10081101561320c575b6127108110156131fc575b60648110156131ed575b10156131e2575b6131cd60216131a2600185016130ea565b938401015b5f1901916f181899199a1a9b1b9c1cb0b131b232b360811b600a82061a8353600a900490565b80156131dd576131cd90916131a7565b505090565b600190910190613191565b6002906064900493019261318a565b6004906127109004930192613180565b6008906305f5e1009004930192613175565b601090662386f26fc100009004930192613168565b6020906d04ee2d6d415b85acef81000000009004930192613158565b506040915072184f03e93ff9f4daa797ed6e38ed64bf6a1f0160401b810461313e565b9061327d9291612d7a565b6132cf6132dd61328d835161311c565b926040519283916132c960208401967f19457468657265756d205369676e6564204d6573736167653a0a0000000000008852603a850190612d68565b90612d68565b03601f1981018352826105fb565b519020604182510361339057815f916020809401519160606040820151910151841a92601b8410613379575b9061334d9161332760ff8616601b811490811561336e575b506133e7565b604051948594859094939260ff6060936080840197845216602083015260408201520152565b838052039060015afa156107bf576001600160a01b03805f51921691161490565b601c9150145f613321565b929061338761334d926133d5565b93909150613309565b60405162461bcd60e51b815260206004820152601860248201527f496e76616c6964207369676e6174757265206c656e67746800000000000000006044820152606490fd5b60ff601b9116019060ff82116103fa57565b156133ee57565b60405162461bcd60e51b815260206004820152601760248201527f496e76616c6964207369676e61747572652076616c75650000000000000000006044820152606490fdfea264697066735822122054af74418c6fa22788840cd9709f3452a003e9eb3febfa7ad924e93d3c59fe7764736f6c634300081a0033","linkReferences":{}},"methodIdentifiers":{"_setupEstimatorAndEvvm(address,address)":"dfa33403","acceptNewAdmin()":"cd6b5460","acceptNewEstimator()":"6fa7ff17","acceptNewGoldenFisher()":"34dd90d6","acceptSetSecondsToUnlockStaking()":"610a0476","addPresaleStaker(address)":"6c58f77b","addPresaleStakers(address[])":"be100345","cancelChangeAllowPresaleStaking()":"7068dc65","cancelChangeAllowPublicStaking()":"b996b6c4","cancelSetSecondsToUnllockFullUnstaking()":"b384c574","checkIfStakeNonceUsed(address,uint256)":"eb57af4a","confirmChangeAllowPresaleStaking()":"1e9c210f","confirmChangeAllowPublicStaking()":"681f02ac","confirmServiceStaking()":"c9d2beb1","confirmSetSecondsToUnllockFullUnstaking()":"8f4b3f28","getAddressHistory(address)":"fabd08e8","getAddressHistoryByIndex(address,uint256)":"9053a258","getAllDataOfAllowPublicStaking()":"d30f6d99","getAllowPresaleStaking()":"e7dc0756","getEstimatorAddress()":"66d161aa","getEstimatorProposal()":"e6cbd0a6","getEvvmAddress()":"0d1ffe3a","getGoldenFisher()":"7f8da591","getGoldenFisherProposal()":"6254300b","getMateAddress()":"96ae4e45","getOwner()":"893d20e8","getPresaleStaker(address)":"c130a719","getPresaleStakerCount()":"fa6215f3","getSecondsToUnlockFullUnstaking()":"f5c1af1c","getSecondsToUnlockStaking()":"e6f2ebe4","getSizeOfAddressHistory(address)":"fc2feab2","getTimeToUserUnlockFullUnstakingTime(address)":"d5bbacd5","getTimeToUserUnlockStakingTime(address)":"9e411233","getUserAmountStaked(address)":"9cde1d3e","gimmeYiel(address)":"602c4fb4","goldenStaking(bool,uint256,bytes)":"475c31ff","prepareChangeAllowPresaleStaking()":"dfb2b3a4","prepareChangeAllowPublicStaking()":"27be0557","prepareServiceStaking(uint256)":"99b4c3ef","prepareSetSecondsToUnllockFullUnstaking(uint256)":"3d8ff69a","presaleStaking(address,bool,uint256,bytes,uint256,uint256,bool,bytes)":"c0f6e7d1","priceOfStaking()":"cb0900b8","proposeAdmin(address)":"147bf6c4","proposeEstimator(address)":"3900738a","proposeGoldenFisher(address)":"489c5ad4","proposeSetSecondsToUnlockStaking(uint256)":"6b2933a2","publicStaking(address,bool,uint256,uint256,bytes,uint256,uint256,bool,bytes)":"c769095c","rejectProposalAdmin()":"b38c950a","rejectProposalEstimator()":"a06831ba","rejectProposalGoldenFisher()":"a84e9f23","rejectProposalSetSecondsToUnlockStaking()":"7c25faef","serviceUnstaking(uint256)":"829c67d4"},"id":75}