{"abi":[{"type":"constructor","inputs":[{"name":"_evvmAddress","type":"address","internalType":"address"}],"stateMutability":"nonpayable"},{"type":"function","name":"deposit","inputs":[{"name":"token","type":"address","internalType":"address"},{"name":"amount","type":"uint256","internalType":"uint256"}],"outputs":[],"stateMutability":"payable"},{"type":"function","name":"evvmAddress","inputs":[],"outputs":[{"name":"","type":"address","internalType":"address"}],"stateMutability":"view"},{"type":"function","name":"withdraw","inputs":[{"name":"token","type":"address","internalType":"address"},{"name":"amount","type":"uint256","internalType":"uint256"}],"outputs":[],"stateMutability":"nonpayable"},{"type":"error","name":"DepositAmountMustBeGreaterThanZero","inputs":[]},{"type":"error","name":"InsufficientBalance","inputs":[]},{"type":"error","name":"InvalidDepositAmount","inputs":[]},{"type":"error","name":"PrincipalTokenIsNotWithdrawable","inputs":[]}],"bytecode":{"object":"0x608034606f57601f61072638819003918201601f19168301916001600160401b03831184841017607357808492602094604052833981010312606f57516001600160a01b03811690819003606f575f80546001600160a01b03191691909117905560405161069e90816100888239f35b5f80fd5b634e487b7160e01b5f52604160045260245ffdfe6080806040526004361015610012575f80fd5b5f905f3560e01c9081632fce10e51461057c5750806347e7ef24146103e05763f3fef3a31461003f575f80fd5b346103dd5761004d3661059e565b6001600160a01b038392935416926040516301f5ff1d60e31b81528381600481885afa90811561023c5784916102a9575b50608001516001600160a01b03828116929116821461029a5760405163d4fac45d60e01b815233600482015260248101839052602081604481895afa90811561028f57908491869161025a575b501061024b57839482155f1461016f575050506001600160a01b03825416803b1561016b57604051633b7375bf60e11b81523360048201525f6024820152604481018390529083908290606490829084905af1908115610160578391610148575b50803892335af11561013b5780f35b63b12d13eb90526004601cfd5b81610152916105c4565b61015d57815f61012c565b50fd5b6040513d85823e3d90fd5b5050fd5b803b1561024757604051633b7375bf60e11b81523360048201526001600160a01b039290921660248301526044820184905284908290606490829084905af190811561023c578491610227575b50506044602092604051948593849263a9059cbb60e01b845233600485015260248401525af1801561021c576101f0575080f35b6102119060203d602011610215575b61020981836105c4565b8101906105fa565b5080f35b503d6101ff565b6040513d84823e3d90fd5b81610231916105c4565b61016b57825f6101bc565b6040513d86823e3d90fd5b8480fd5b631e9acf1760e31b8452600484fd5b9150506020813d602011610287575b81610276602093836105c4565b81010312610247578390515f6100cb565b3d9150610269565b6040513d87823e3d90fd5b637c8d2fbf60e11b8452600484fd5b90503d8085833e6102ba81836105c4565b8101906020818303126102475780519067ffffffffffffffff82116103c15701610100818303126102475760405191610100830183811067ffffffffffffffff8211176103c957604052815167ffffffffffffffff81116103c55781610321918401610612565b835260208201516020840152604082015167ffffffffffffffff81116103c5578161034d918401610612565b6040840152606082015167ffffffffffffffff81116103c55790610372918301610612565b606083015260808101516001600160a01b03811681036103c1579160e06080926001600160a01b03948484015260a081015160a084015260c081015160c0840152015160e0820152915061007e565b8580fd5b8680fd5b634e487b7160e01b87526041600452602487fd5b80fd5b506103ea3661059e565b906001600160a01b03811680610486575050341561047757340361046857806001600160a01b03815416803b1561015d57604051630d93f4c760e31b81523360048201525f60248201523460448201529082908290606490829084905af1801561021c5761045757505080f35b81610461916105c4565b6103dd5780f35b63fe9ba5cd60e01b8152600490fd5b6332bba7b160e11b8252600482fd5b3461056d57821561055e576040516323b872dd60e01b81523360048201523060248201526044810184905290602090829060649082905f905af1801561053257610541575b506001600160a01b035f541691823b1561053d57604051630d93f4c760e31b81523360048201526001600160a01b039290921660248301526044820152905f908290606490829084905af1801561053257610524575080f35b61053091505f906105c4565b005b6040513d5f823e3d90fd5b5f80fd5b6105599060203d6020116102155761020981836105c4565b6104cb565b6332bba7b160e11b5f5260045ffd5b63fe9ba5cd60e01b5f5260045ffd5b3461053d575f36600319011261053d576020906001600160a01b035f54168152f35b604090600319011261053d576004356001600160a01b038116810361053d579060243590565b90601f8019910116810190811067ffffffffffffffff8211176105e657604052565b634e487b7160e01b5f52604160045260245ffd5b9081602091031261053d5751801515810361053d5790565b81601f8201121561053d5780519067ffffffffffffffff82116105e65760405192610647601f8401601f1916602001856105c4565b8284526020838301011161053d57815f9260208093018386015e830101529056fea2646970667358221220a9959bd6c52325e5b91d2f0fe503820539ac8df31759cb1afe8f01a6f79dc85164736f6c634300081a0033","linkReferences":{}},"methodIdentifiers":{"deposit(address,uint256)":"47e7ef24","evvmAddress()":"2fce10e5","withdraw(address,uint256)":"f3fef3a3"},"id":78}